{
  "_format": "hh-sol-artifact-1",
  "contractName": "MyBlessNFT",
  "sourceName": "contracts/MyBlessNFT.sol",
  "abi": [
    {
      "inputs": [],
      "stateMutability": "nonpayable",
      "type": "constructor"
    },
    {
      "anonymous": false,
      "inputs": [
        {
          "indexed": true,
          "internalType": "address",
          "name": "owner",
          "type": "address"
        },
        {
          "indexed": true,
          "internalType": "address",
          "name": "approved",
          "type": "address"
        },
        {
          "indexed": true,
          "internalType": "uint256",
          "name": "tokenId",
          "type": "uint256"
        }
      ],
      "name": "Approval",
      "type": "event"
    },
    {
      "anonymous": false,
      "inputs": [
        {
          "indexed": true,
          "internalType": "address",
          "name": "owner",
          "type": "address"
        },
        {
          "indexed": true,
          "internalType": "address",
          "name": "operator",
          "type": "address"
        },
        {
          "indexed": false,
          "internalType": "bool",
          "name": "approved",
          "type": "bool"
        }
      ],
      "name": "ApprovalForAll",
      "type": "event"
    },
    {
      "anonymous": false,
      "inputs": [
        {
          "indexed": false,
          "internalType": "address",
          "name": "sender",
          "type": "address"
        },
        {
          "indexed": false,
          "internalType": "uint256",
          "name": "tokenId",
          "type": "uint256"
        },
        {
          "indexed": false,
          "internalType": "string",
          "name": "bless",
          "type": "string"
        }
      ],
      "name": "NFTMintInfo",
      "type": "event"
    },
    {
      "anonymous": false,
      "inputs": [
        {
          "indexed": true,
          "internalType": "address",
          "name": "from",
          "type": "address"
        },
        {
          "indexed": true,
          "internalType": "address",
          "name": "to",
          "type": "address"
        },
        {
          "indexed": true,
          "internalType": "uint256",
          "name": "tokenId",
          "type": "uint256"
        }
      ],
      "name": "Transfer",
      "type": "event"
    },
    {
      "inputs": [
        {
          "internalType": "address",
          "name": "to",
          "type": "address"
        },
        {
          "internalType": "uint256",
          "name": "tokenId",
          "type": "uint256"
        }
      ],
      "name": "approve",
      "outputs": [],
      "stateMutability": "nonpayable",
      "type": "function"
    },
    {
      "inputs": [
        {
          "internalType": "address",
          "name": "owner",
          "type": "address"
        }
      ],
      "name": "balanceOf",
      "outputs": [
        {
          "internalType": "uint256",
          "name": "",
          "type": "uint256"
        }
      ],
      "stateMutability": "view",
      "type": "function"
    },
    {
      "inputs": [
        {
          "internalType": "uint256",
          "name": "tokenId",
          "type": "uint256"
        }
      ],
      "name": "getApproved",
      "outputs": [
        {
          "internalType": "address",
          "name": "",
          "type": "address"
        }
      ],
      "stateMutability": "view",
      "type": "function"
    },
    {
      "inputs": [
        {
          "internalType": "address",
          "name": "owner",
          "type": "address"
        },
        {
          "internalType": "address",
          "name": "operator",
          "type": "address"
        }
      ],
      "name": "isApprovedForAll",
      "outputs": [
        {
          "internalType": "bool",
          "name": "",
          "type": "bool"
        }
      ],
      "stateMutability": "view",
      "type": "function"
    },
    {
      "inputs": [
        {
          "internalType": "string",
          "name": "bless",
          "type": "string"
        }
      ],
      "name": "makeBlessNFT",
      "outputs": [],
      "stateMutability": "nonpayable",
      "type": "function"
    },
    {
      "inputs": [],
      "name": "name",
      "outputs": [
        {
          "internalType": "string",
          "name": "",
          "type": "string"
        }
      ],
      "stateMutability": "view",
      "type": "function"
    },
    {
      "inputs": [
        {
          "internalType": "uint256",
          "name": "tokenId",
          "type": "uint256"
        }
      ],
      "name": "ownerOf",
      "outputs": [
        {
          "internalType": "address",
          "name": "",
          "type": "address"
        }
      ],
      "stateMutability": "view",
      "type": "function"
    },
    {
      "inputs": [
        {
          "internalType": "address",
          "name": "from",
          "type": "address"
        },
        {
          "internalType": "address",
          "name": "to",
          "type": "address"
        },
        {
          "internalType": "uint256",
          "name": "tokenId",
          "type": "uint256"
        }
      ],
      "name": "safeTransferFrom",
      "outputs": [],
      "stateMutability": "nonpayable",
      "type": "function"
    },
    {
      "inputs": [
        {
          "internalType": "address",
          "name": "from",
          "type": "address"
        },
        {
          "internalType": "address",
          "name": "to",
          "type": "address"
        },
        {
          "internalType": "uint256",
          "name": "tokenId",
          "type": "uint256"
        },
        {
          "internalType": "bytes",
          "name": "_data",
          "type": "bytes"
        }
      ],
      "name": "safeTransferFrom",
      "outputs": [],
      "stateMutability": "nonpayable",
      "type": "function"
    },
    {
      "inputs": [
        {
          "internalType": "address",
          "name": "operator",
          "type": "address"
        },
        {
          "internalType": "bool",
          "name": "approved",
          "type": "bool"
        }
      ],
      "name": "setApprovalForAll",
      "outputs": [],
      "stateMutability": "nonpayable",
      "type": "function"
    },
    {
      "inputs": [
        {
          "internalType": "bytes4",
          "name": "interfaceId",
          "type": "bytes4"
        }
      ],
      "name": "supportsInterface",
      "outputs": [
        {
          "internalType": "bool",
          "name": "",
          "type": "bool"
        }
      ],
      "stateMutability": "view",
      "type": "function"
    },
    {
      "inputs": [],
      "name": "symbol",
      "outputs": [
        {
          "internalType": "string",
          "name": "",
          "type": "string"
        }
      ],
      "stateMutability": "view",
      "type": "function"
    },
    {
      "inputs": [
        {
          "internalType": "uint256",
          "name": "tokenId",
          "type": "uint256"
        }
      ],
      "name": "tokenURI",
      "outputs": [
        {
          "internalType": "string",
          "name": "",
          "type": "string"
        }
      ],
      "stateMutability": "view",
      "type": "function"
    },
    {
      "inputs": [
        {
          "internalType": "address",
          "name": "from",
          "type": "address"
        },
        {
          "internalType": "address",
          "name": "to",
          "type": "address"
        },
        {
          "internalType": "uint256",
          "name": "tokenId",
          "type": "uint256"
        }
      ],
      "name": "transferFrom",
      "outputs": [],
      "stateMutability": "nonpayable",
      "type": "function"
    }
  ],
  "bytecode": "0x608060405260405180610160016040528061012f8152602001620038e261012f91396008908051906020019062000038929190620001e8565b503480156200004657600080fd5b506040518060400160405280600981526020017f426c657373204e465400000000000000000000000000000000000000000000008152506040518060400160405280600881526020017f426c6573734e46540000000000000000000000000000000000000000000000008152508160009080519060200190620000cb929190620001e8565b508060019080519060200190620000e4929190620001e8565b5050506200011660405180606001604052806024815260200162003a11602491396200011c60201b62000cae1760201c565b620003c5565b620001bc81604051602401620001339190620002d9565b6040516020818303038152906040527f41304fac000000000000000000000000000000000000000000000000000000007bffffffffffffffffffffffffffffffffffffffffffffffffffffffff19166020820180517bffffffffffffffffffffffffffffffffffffffffffffffffffffffff8381831617835250505050620001bf60201b60201c565b50565b60008151905060006a636f6e736f6c652e6c6f679050602083016000808483855afa5050505050565b828054620001f6906200034f565b90600052602060002090601f0160209004810192826200021a576000855562000266565b82601f106200023557805160ff191683800117855562000266565b8280016001018555821562000266579182015b828111156200026557825182559160200191906001019062000248565b5b50905062000275919062000279565b5090565b5b80821115620002945760008160009055506001016200027a565b5090565b6000620002a582620002fd565b620002b1818562000308565b9350620002c381856020860162000319565b620002ce81620003b4565b840191505092915050565b60006020820190508181036000830152620002f5818462000298565b905092915050565b600081519050919050565b600082825260208201905092915050565b60005b83811015620003395780820151818401526020810190506200031c565b8381111562000349576000848401525b50505050565b600060028204905060018216806200036857607f821691505b602082108114156200037f576200037e62000385565b5b50919050565b7f4e487b7100000000000000000000000000000000000000000000000000000000600052602260045260246000fd5b6000601f19601f8301169050919050565b61350d80620003d56000396000f3fe608060405234801561001057600080fd5b50600436106100ea5760003560e01c806370a082311161008c578063b74f82d911610066578063b74f82d91461025b578063b88d4fde14610277578063c87b56dd14610293578063e985e9c5146102c3576100ea565b806370a08231146101f157806395d89b4114610221578063a22cb4651461023f576100ea565b8063095ea7b3116100c8578063095ea7b31461016d57806323b872dd1461018957806342842e0e146101a55780636352211e146101c1576100ea565b806301ffc9a7146100ef57806306fdde031461011f578063081812fc1461013d575b600080fd5b6101096004803603810190610104919061210f565b6102f3565b604051610116919061276f565b60405180910390f35b6101276103d5565b604051610134919061278a565b60405180910390f35b610157600480360381019061015291906121a2565b610467565b60405161016491906126ca565b60405180910390f35b610187600480360381019061018291906120d3565b6104ec565b005b6101a3600480360381019061019e9190611fcd565b610604565b005b6101bf60048036038101906101ba9190611fcd565b610664565b005b6101db60048036038101906101d691906121a2565b610684565b6040516101e891906126ca565b60405180910390f35b61020b60048036038101906102069190611f68565b610736565b60405161021891906129ea565b60405180910390f35b6102296107ee565b604051610236919061278a565b60405180910390f35b61025960048036038101906102549190612097565b610880565b005b61027560048036038101906102709190612161565b610896565b005b610291600480360381019061028c919061201c565b610a66565b005b6102ad60048036038101906102a891906121a2565b610ac8565b6040516102ba919061278a565b60405180910390f35b6102dd60048036038101906102d89190611f91565b610c1a565b6040516102ea919061276f565b60405180910390f35b60007f80ac58cd000000000000000000000000000000000000000000000000000000007bffffffffffffffffffffffffffffffffffffffffffffffffffffffff1916827bffffffffffffffffffffffffffffffffffffffffffffffffffffffff191614806103be57507f5b5e139f000000000000000000000000000000000000000000000000000000007bffffffffffffffffffffffffffffffffffffffffffffffffffffffff1916827bffffffffffffffffffffffffffffffffffffffffffffffffffffffff1916145b806103ce57506103cd82610d47565b5b9050919050565b6060600080546103e490612caf565b80601f016020809104026020016040519081016040528092919081815260200182805461041090612caf565b801561045d5780601f106104325761010080835404028352916020019161045d565b820191906000526020600020905b81548152906001019060200180831161044057829003601f168201915b5050505050905090565b600061047282610db1565b6104b1576040517f08c379a00000000000000000000000000000000000000000000000000000000081526004016104a89061296a565b60405180910390fd5b6004600083815260200190815260200160002060009054906101000a900473ffffffffffffffffffffffffffffffffffffffff169050919050565b60006104f782610684565b90508073ffffffffffffffffffffffffffffffffffffffff168373ffffffffffffffffffffffffffffffffffffffff161415610568576040517f08c379a000000000000000000000000000000000000000000000000000000000815260040161055f906129aa565b60405180910390fd5b8073ffffffffffffffffffffffffffffffffffffffff16610587610e1d565b73ffffffffffffffffffffffffffffffffffffffff1614806105b657506105b5816105b0610e1d565b610c1a565b5b6105f5576040517f08c379a00000000000000000000000000000000000000000000000000000000081526004016105ec906128aa565b60405180910390fd5b6105ff8383610e25565b505050565b61061561060f610e1d565b82610ede565b610654576040517f08c379a000000000000000000000000000000000000000000000000000000000815260040161064b906129ca565b60405180910390fd5b61065f838383610fbc565b505050565b61067f83838360405180602001604052806000815250610a66565b505050565b6000806002600084815260200190815260200160002060009054906101000a900473ffffffffffffffffffffffffffffffffffffffff169050600073ffffffffffffffffffffffffffffffffffffffff168173ffffffffffffffffffffffffffffffffffffffff16141561072d576040517f08c379a0000000000000000000000000000000000000000000000000000000008152600401610724906128ea565b60405180910390fd5b80915050919050565b60008073ffffffffffffffffffffffffffffffffffffffff168273ffffffffffffffffffffffffffffffffffffffff1614156107a7576040517f08c379a000000000000000000000000000000000000000000000000000000000815260040161079e906128ca565b60405180910390fd5b600360008373ffffffffffffffffffffffffffffffffffffffff1673ffffffffffffffffffffffffffffffffffffffff168152602001908152602001600020549050919050565b6060600180546107fd90612caf565b80601f016020809104026020016040519081016040528092919081815260200182805461082990612caf565b80156108765780601f1061084b57610100808354040283529160200191610876565b820191906000526020600020905b81548152906001019060200180831161085957829003601f168201915b5050505050905090565b61089261088b610e1d565b8383611223565b5050565b60006108a26007611390565b90506000826040516020016108b791906125f9565b604051602081830303815290604052905060006008826040516020016108de929190612634565b604051602081830303815290604052905060006109376109096001866109049190612ae4565b61139e565b6109128461154b565b604051602001610923929190612663565b60405160208183030381529060405261154b565b905060008160405160200161094c91906126a8565b604051602081830303815290604052905061099b6040518060400160405280601581526020017f0a2d2d2d2d2d2d2d2d2d2d2d2d2d2d2d2d2d2d2d2d0000000000000000000000815250610cae565b6109a481610cae565b6109e26040518060400160405280601581526020017f2d2d2d2d2d2d2d2d2d2d2d2d2d2d2d2d2d2d2d2d0a0000000000000000000000815250610cae565b6109ec3386611709565b6109f68582611727565b610a00600761179b565b610a236040518060600160405280602581526020016134736025913986336117b1565b7fa96c5381b455f337099a471ce3237002763c7f06f5aa93f2c0386a9bac4134c8338688604051610a5693929190612731565b60405180910390a1505050505050565b610a77610a71610e1d565b83610ede565b610ab6576040517f08c379a0000000000000000000000000000000000000000000000000000000008152600401610aad906129ca565b60405180910390fd5b610ac284848484611850565b50505050565b6060610ad382610db1565b610b12576040517f08c379a0000000000000000000000000000000000000000000000000000000008152600401610b099061294a565b60405180910390fd5b6000600660008481526020019081526020016000208054610b3290612caf565b80601f0160208091040260200160405190810160405280929190818152602001828054610b5e90612caf565b8015610bab5780601f10610b8057610100808354040283529160200191610bab565b820191906000526020600020905b815481529060010190602001808311610b8e57829003601f168201915b505050505090506000610bbc6118ac565b9050600081511415610bd2578192505050610c15565b600082511115610c07578082604051602001610bef929190612610565b60405160208183030381529060405292505050610c15565b610c10846118c3565b925050505b919050565b6000600560008473ffffffffffffffffffffffffffffffffffffffff1673ffffffffffffffffffffffffffffffffffffffff16815260200190815260200160002060008373ffffffffffffffffffffffffffffffffffffffff1673ffffffffffffffffffffffffffffffffffffffff16815260200190815260200160002060009054906101000a900460ff16905092915050565b610d4481604051602401610cc2919061278a565b6040516020818303038152906040527f41304fac000000000000000000000000000000000000000000000000000000007bffffffffffffffffffffffffffffffffffffffffffffffffffffffff19166020820180517bffffffffffffffffffffffffffffffffffffffffffffffffffffffff838183161783525050505061196a565b50565b60007f01ffc9a7000000000000000000000000000000000000000000000000000000007bffffffffffffffffffffffffffffffffffffffffffffffffffffffff1916827bffffffffffffffffffffffffffffffffffffffffffffffffffffffff1916149050919050565b60008073ffffffffffffffffffffffffffffffffffffffff166002600084815260200190815260200160002060009054906101000a900473ffffffffffffffffffffffffffffffffffffffff1673ffffffffffffffffffffffffffffffffffffffff1614159050919050565b600033905090565b816004600083815260200190815260200160002060006101000a81548173ffffffffffffffffffffffffffffffffffffffff021916908373ffffffffffffffffffffffffffffffffffffffff160217905550808273ffffffffffffffffffffffffffffffffffffffff16610e9883610684565b73ffffffffffffffffffffffffffffffffffffffff167f8c5be1e5ebec7d5bd14f71427d1e84f3dd0314c0f7b2291e5b200ac8c7c3b92560405160405180910390a45050565b6000610ee982610db1565b610f28576040517f08c379a0000000000000000000000000000000000000000000000000000000008152600401610f1f9061288a565b60405180910390fd5b6000610f3383610684565b90508073ffffffffffffffffffffffffffffffffffffffff168473ffffffffffffffffffffffffffffffffffffffff161480610fa257508373ffffffffffffffffffffffffffffffffffffffff16610f8a84610467565b73ffffffffffffffffffffffffffffffffffffffff16145b80610fb35750610fb28185610c1a565b5b91505092915050565b8273ffffffffffffffffffffffffffffffffffffffff16610fdc82610684565b73ffffffffffffffffffffffffffffffffffffffff1614611032576040517f08c379a00000000000000000000000000000000000000000000000000000000081526004016110299061280a565b60405180910390fd5b600073ffffffffffffffffffffffffffffffffffffffff168273ffffffffffffffffffffffffffffffffffffffff1614156110a2576040517f08c379a00000000000000000000000000000000000000000000000000000000081526004016110999061284a565b60405180910390fd5b6110ad838383611993565b6110b8600082610e25565b6001600360008573ffffffffffffffffffffffffffffffffffffffff1673ffffffffffffffffffffffffffffffffffffffff16815260200190815260200160002060008282546111089190612bc5565b925050819055506001600360008473ffffffffffffffffffffffffffffffffffffffff1673ffffffffffffffffffffffffffffffffffffffff168152602001908152602001600020600082825461115f9190612ae4565b92505081905550816002600083815260200190815260200160002060006101000a81548173ffffffffffffffffffffffffffffffffffffffff021916908373ffffffffffffffffffffffffffffffffffffffff160217905550808273ffffffffffffffffffffffffffffffffffffffff168473ffffffffffffffffffffffffffffffffffffffff167fddf252ad1be2c89b69c2b068fc378daa952ba7f163c4a11628f55a4df523b3ef60405160405180910390a461121e838383611998565b505050565b8173ffffffffffffffffffffffffffffffffffffffff168373ffffffffffffffffffffffffffffffffffffffff161415611292576040517f08c379a00000000000000000000000000000000000000000000000000000000081526004016112899061286a565b60405180910390fd5b80600560008573ffffffffffffffffffffffffffffffffffffffff1673ffffffffffffffffffffffffffffffffffffffff16815260200190815260200160002060008473ffffffffffffffffffffffffffffffffffffffff1673ffffffffffffffffffffffffffffffffffffffff16815260200190815260200160002060006101000a81548160ff0219169083151502179055508173ffffffffffffffffffffffffffffffffffffffff168373ffffffffffffffffffffffffffffffffffffffff167f17307eab39ab6107e8899845ad3d59bd9653f200f220920489ca2b5937696c3183604051611383919061276f565b60405180910390a3505050565b600081600001549050919050565b606060008214156113e6576040518060400160405280600181526020017f30000000000000000000000000000000000000000000000000000000000000008152509050611546565b600082905060005b6000821461141857808061140190612d12565b915050600a826114119190612b3a565b91506113ee565b60008167ffffffffffffffff81111561145a577f4e487b7100000000000000000000000000000000000000000000000000000000600052604160045260246000fd5b6040519080825280601f01601f19166020018201604052801561148c5781602001600182028036833780820191505090505b5090505b6000851461153f576001826114a59190612bc5565b9150600a856114b49190612d5b565b60306114c09190612ae4565b60f81b8183815181106114fc577f4e487b7100000000000000000000000000000000000000000000000000000000600052603260045260246000fd5b60200101907effffffffffffffffffffffffffffffffffffffffffffffffffffffffffffff1916908160001a905350600a856115389190612b3a565b9450611490565b8093505050505b919050565b606060008251905060008114156115745760405180602001604052806000815250915050611704565b600060036002836115859190612ae4565b61158f9190612b3a565b600461159b9190612b6b565b905060006020826115ac9190612ae4565b67ffffffffffffffff8111156115eb577f4e487b7100000000000000000000000000000000000000000000000000000000600052604160045260246000fd5b6040519080825280601f01601f19166020018201604052801561161d5781602001600182028036833780820191505090505b5090506000604051806060016040528060408152602001613498604091399050600181016020830160005b868110156116c15760038101905062ffffff818a015116603f8160121c168401518060081b905060ff603f83600c1c1686015116810190508060081b905060ff603f8360061c1686015116810190508060081b905060ff603f831686015116810190508060e01b90508084526004840193505050611648565b5060038606600181146116db57600281146116eb576116f6565b613d3d60f01b60028303526116f6565b603d60f81b60018303525b508484525050819450505050505b919050565b61172382826040518060200160405280600081525061199d565b5050565b61173082610db1565b61176f576040517f08c379a00000000000000000000000000000000000000000000000000000000081526004016117669061290a565b60405180910390fd5b80600660008481526020019081526020016000209080519060200190611796929190611d8c565b505050565b6001816000016000828254019250508190555050565b61184b8383836040516024016117c9939291906127ac565b6040516020818303038152906040527fe3849f79000000000000000000000000000000000000000000000000000000007bffffffffffffffffffffffffffffffffffffffffffffffffffffffff19166020820180517bffffffffffffffffffffffffffffffffffffffffffffffffffffffff838183161783525050505061196a565b505050565b61185b848484610fbc565b611867848484846119f8565b6118a6576040517f08c379a000000000000000000000000000000000000000000000000000000000815260040161189d906127ea565b60405180910390fd5b50505050565b606060405180602001604052806000815250905090565b60606118ce82610db1565b61190d576040517f08c379a00000000000000000000000000000000000000000000000000000000081526004016119049061298a565b60405180910390fd5b60006119176118ac565b905060008151116119375760405180602001604052806000815250611962565b806119418461139e565b604051602001611952929190612610565b6040516020818303038152906040525b915050919050565b60008151905060006a636f6e736f6c652e6c6f679050602083016000808483855afa5050505050565b505050565b505050565b6119a78383611b8f565b6119b460008484846119f8565b6119f3576040517f08c379a00000000000000000000000000000000000000000000000000000000081526004016119ea906127ea565b60405180910390fd5b505050565b6000611a198473ffffffffffffffffffffffffffffffffffffffff16611d69565b15611b82578373ffffffffffffffffffffffffffffffffffffffff1663150b7a02611a42610e1d565b8786866040518563ffffffff1660e01b8152600401611a6494939291906126e5565b602060405180830381600087803b158015611a7e57600080fd5b505af1925050508015611aaf57506040513d601f19601f82011682018060405250810190611aac9190612138565b60015b611b32573d8060008114611adf576040519150601f19603f3d011682016040523d82523d6000602084013e611ae4565b606091505b50600081511415611b2a576040517f08c379a0000000000000000000000000000000000000000000000000000000008152600401611b21906127ea565b60405180910390fd5b805181602001fd5b63150b7a0260e01b7bffffffffffffffffffffffffffffffffffffffffffffffffffffffff1916817bffffffffffffffffffffffffffffffffffffffffffffffffffffffff191614915050611b87565b600190505b949350505050565b600073ffffffffffffffffffffffffffffffffffffffff168273ffffffffffffffffffffffffffffffffffffffff161415611bff576040517f08c379a0000000000000000000000000000000000000000000000000000000008152600401611bf69061292a565b60405180910390fd5b611c0881610db1565b15611c48576040517f08c379a0000000000000000000000000000000000000000000000000000000008152600401611c3f9061282a565b60405180910390fd5b611c5460008383611993565b6001600360008473ffffffffffffffffffffffffffffffffffffffff1673ffffffffffffffffffffffffffffffffffffffff1681526020019081526020016000206000828254611ca49190612ae4565b92505081905550816002600083815260200190815260200160002060006101000a81548173ffffffffffffffffffffffffffffffffffffffff021916908373ffffffffffffffffffffffffffffffffffffffff160217905550808273ffffffffffffffffffffffffffffffffffffffff16600073ffffffffffffffffffffffffffffffffffffffff167fddf252ad1be2c89b69c2b068fc378daa952ba7f163c4a11628f55a4df523b3ef60405160405180910390a4611d6560008383611998565b5050565b6000808273ffffffffffffffffffffffffffffffffffffffff163b119050919050565b828054611d9890612caf565b90600052602060002090601f016020900481019282611dba5760008555611e01565b82601f10611dd357805160ff1916838001178555611e01565b82800160010185558215611e01579182015b82811115611e00578251825591602001919060010190611de5565b5b509050611e0e9190611e12565b5090565b5b80821115611e2b576000816000905550600101611e13565b5090565b6000611e42611e3d84612a2a565b612a05565b905082815260208101848484011115611e5a57600080fd5b611e65848285612c6d565b509392505050565b6000611e80611e7b84612a5b565b612a05565b905082815260208101848484011115611e9857600080fd5b611ea3848285612c6d565b509392505050565b600081359050611eba81613416565b92915050565b600081359050611ecf8161342d565b92915050565b600081359050611ee481613444565b92915050565b600081519050611ef981613444565b92915050565b600082601f830112611f1057600080fd5b8135611f20848260208601611e2f565b91505092915050565b600082601f830112611f3a57600080fd5b8135611f4a848260208601611e6d565b91505092915050565b600081359050611f628161345b565b92915050565b600060208284031215611f7a57600080fd5b6000611f8884828501611eab565b91505092915050565b60008060408385031215611fa457600080fd5b6000611fb285828601611eab565b9250506020611fc385828601611eab565b9150509250929050565b600080600060608486031215611fe257600080fd5b6000611ff086828701611eab565b935050602061200186828701611eab565b925050604061201286828701611f53565b9150509250925092565b6000806000806080858703121561203257600080fd5b600061204087828801611eab565b945050602061205187828801611eab565b935050604061206287828801611f53565b925050606085013567ffffffffffffffff81111561207f57600080fd5b61208b87828801611eff565b91505092959194509250565b600080604083850312156120aa57600080fd5b60006120b885828601611eab565b92505060206120c985828601611ec0565b9150509250929050565b600080604083850312156120e657600080fd5b60006120f485828601611eab565b925050602061210585828601611f53565b9150509250929050565b60006020828403121561212157600080fd5b600061212f84828501611ed5565b91505092915050565b60006020828403121561214a57600080fd5b600061215884828501611eea565b91505092915050565b60006020828403121561217357600080fd5b600082013567ffffffffffffffff81111561218d57600080fd5b61219984828501611f29565b91505092915050565b6000602082840312156121b457600080fd5b60006121c284828501611f53565b91505092915050565b6121d481612bf9565b82525050565b6121e381612c0b565b82525050565b60006121f482612aa1565b6121fe8185612ab7565b935061220e818560208601612c7c565b61221781612e48565b840191505092915050565b600061222d82612aac565b6122378185612ac8565b9350612247818560208601612c7c565b61225081612e48565b840191505092915050565b600061226682612aac565b6122708185612ad9565b9350612280818560208601612c7c565b80840191505092915050565b6000815461229981612caf565b6122a38186612ad9565b945060018216600081146122be57600181146122cf57612302565b60ff19831686528186019350612302565b6122d885612a8c565b60005b838110156122fa578154818901526001820191506020810190506122db565b838801955050505b50505092915050565b6000612318603283612ac8565b915061232382612e59565b604082019050919050565b600061233b602583612ac8565b915061234682612ea8565b604082019050919050565b600061235e601c83612ac8565b915061236982612ef7565b602082019050919050565b6000612381602483612ac8565b915061238c82612f20565b604082019050919050565b60006123a4601983612ac8565b91506123af82612f6f565b602082019050919050565b60006123c7606383612ad9565b91506123d282612f98565b606382019050919050565b60006123ea602c83612ac8565b91506123f582613033565b604082019050919050565b600061240d600d83612ad9565b915061241882613082565b600d82019050919050565b6000612430603883612ac8565b915061243b826130ab565b604082019050919050565b6000612453602a83612ac8565b915061245e826130fa565b604082019050919050565b6000612476602983612ac8565b915061248182613149565b604082019050919050565b6000612499602e83612ac8565b91506124a482613198565b604082019050919050565b60006124bc600283612ad9565b91506124c7826131e7565b600282019050919050565b60006124df602083612ac8565b91506124ea82613210565b602082019050919050565b6000612502603183612ac8565b915061250d82613239565b604082019050919050565b6000612525602c83612ac8565b915061253082613288565b604082019050919050565b6000612548602f83612ac8565b9150612553826132d7565b604082019050919050565b600061256b600a83612ad9565b915061257682613326565b600a82019050919050565b600061258e602183612ac8565b91506125998261334f565b604082019050919050565b60006125b1601d83612ad9565b91506125bc8261339e565b601d82019050919050565b60006125d4603183612ac8565b91506125df826133c7565b604082019050919050565b6125f381612c63565b82525050565b6000612605828461225b565b915081905092915050565b600061261c828561225b565b9150612628828461225b565b91508190509392505050565b6000612640828561228c565b915061264c828461225b565b915061265782612400565b91508190509392505050565b600061266e8261255e565b915061267a828561225b565b9150612685826123ba565b9150612691828461225b565b915061269c826124af565b91508190509392505050565b60006126b3826125a4565b91506126bf828461225b565b915081905092915050565b60006020820190506126df60008301846121cb565b92915050565b60006080820190506126fa60008301876121cb565b61270760208301866121cb565b61271460408301856125ea565b818103606083015261272681846121e9565b905095945050505050565b600060608201905061274660008301866121cb565b61275360208301856125ea565b81810360408301526127658184612222565b9050949350505050565b600060208201905061278460008301846121da565b92915050565b600060208201905081810360008301526127a48184612222565b905092915050565b600060608201905081810360008301526127c68186612222565b90506127d560208301856125ea565b6127e260408301846121cb565b949350505050565b600060208201905081810360008301526128038161230b565b9050919050565b600060208201905081810360008301526128238161232e565b9050919050565b6000602082019050818103600083015261284381612351565b9050919050565b6000602082019050818103600083015261286381612374565b9050919050565b6000602082019050818103600083015261288381612397565b9050919050565b600060208201905081810360008301526128a3816123dd565b9050919050565b600060208201905081810360008301526128c381612423565b9050919050565b600060208201905081810360008301526128e381612446565b9050919050565b6000602082019050818103600083015261290381612469565b9050919050565b600060208201905081810360008301526129238161248c565b9050919050565b60006020820190508181036000830152612943816124d2565b9050919050565b60006020820190508181036000830152612963816124f5565b9050919050565b6000602082019050818103600083015261298381612518565b9050919050565b600060208201905081810360008301526129a38161253b565b9050919050565b600060208201905081810360008301526129c381612581565b9050919050565b600060208201905081810360008301526129e3816125c7565b9050919050565b60006020820190506129ff60008301846125ea565b92915050565b6000612a0f612a20565b9050612a1b8282612ce1565b919050565b6000604051905090565b600067ffffffffffffffff821115612a4557612a44612e19565b5b612a4e82612e48565b9050602081019050919050565b600067ffffffffffffffff821115612a7657612a75612e19565b5b612a7f82612e48565b9050602081019050919050565b60008190508160005260206000209050919050565b600081519050919050565b600081519050919050565b600082825260208201905092915050565b600082825260208201905092915050565b600081905092915050565b6000612aef82612c63565b9150612afa83612c63565b9250827fffffffffffffffffffffffffffffffffffffffffffffffffffffffffffffffff03821115612b2f57612b2e612d8c565b5b828201905092915050565b6000612b4582612c63565b9150612b5083612c63565b925082612b6057612b5f612dbb565b5b828204905092915050565b6000612b7682612c63565b9150612b8183612c63565b9250817fffffffffffffffffffffffffffffffffffffffffffffffffffffffffffffffff0483118215151615612bba57612bb9612d8c565b5b828202905092915050565b6000612bd082612c63565b9150612bdb83612c63565b925082821015612bee57612bed612d8c565b5b828203905092915050565b6000612c0482612c43565b9050919050565b60008115159050919050565b60007fffffffff0000000000000000000000000000000000000000000000000000000082169050919050565b600073ffffffffffffffffffffffffffffffffffffffff82169050919050565b6000819050919050565b82818337600083830152505050565b60005b83811015612c9a578082015181840152602081019050612c7f565b83811115612ca9576000848401525b50505050565b60006002820490506001821680612cc757607f821691505b60208210811415612cdb57612cda612dea565b5b50919050565b612cea82612e48565b810181811067ffffffffffffffff82111715612d0957612d08612e19565b5b80604052505050565b6000612d1d82612c63565b91507fffffffffffffffffffffffffffffffffffffffffffffffffffffffffffffffff821415612d5057612d4f612d8c565b5b600182019050919050565b6000612d6682612c63565b9150612d7183612c63565b925082612d8157612d80612dbb565b5b828206905092915050565b7f4e487b7100000000000000000000000000000000000000000000000000000000600052601160045260246000fd5b7f4e487b7100000000000000000000000000000000000000000000000000000000600052601260045260246000fd5b7f4e487b7100000000000000000000000000000000000000000000000000000000600052602260045260246000fd5b7f4e487b7100000000000000000000000000000000000000000000000000000000600052604160045260246000fd5b6000601f19601f8301169050919050565b7f4552433732313a207472616e7366657220746f206e6f6e20455243373231526560008201527f63656976657220696d706c656d656e7465720000000000000000000000000000602082015250565b7f4552433732313a207472616e736665722066726f6d20696e636f72726563742060008201527f6f776e6572000000000000000000000000000000000000000000000000000000602082015250565b7f4552433732313a20746f6b656e20616c7265616479206d696e74656400000000600082015250565b7f4552433732313a207472616e7366657220746f20746865207a65726f2061646460008201527f7265737300000000000000000000000000000000000000000000000000000000602082015250565b7f4552433732313a20617070726f766520746f2063616c6c657200000000000000600082015250565b7f222c20226465736372697074696f6e223a20224120686967686c79206163636c60008201527f61696d656420636f6c6c656374696f6e206f6620737175617265732e222c202260208201527f696d616765223a2022646174613a696d6167652f7376672b786d6c3b6261736560408201527f36342c0000000000000000000000000000000000000000000000000000000000606082015250565b7f4552433732313a206f70657261746f7220717565727920666f72206e6f6e657860008201527f697374656e7420746f6b656e0000000000000000000000000000000000000000602082015250565b7f3c2f746578743e3c2f7376673e00000000000000000000000000000000000000600082015250565b7f4552433732313a20617070726f76652063616c6c6572206973206e6f74206f7760008201527f6e6572206e6f7220617070726f76656420666f7220616c6c0000000000000000602082015250565b7f4552433732313a2062616c616e636520717565727920666f7220746865207a6560008201527f726f206164647265737300000000000000000000000000000000000000000000602082015250565b7f4552433732313a206f776e657220717565727920666f72206e6f6e657869737460008201527f656e7420746f6b656e0000000000000000000000000000000000000000000000602082015250565b7f45524337323155524953746f726167653a2055524920736574206f66206e6f6e60008201527f6578697374656e7420746f6b656e000000000000000000000000000000000000602082015250565b7f227d000000000000000000000000000000000000000000000000000000000000600082015250565b7f4552433732313a206d696e7420746f20746865207a65726f2061646472657373600082015250565b7f45524337323155524953746f726167653a2055524920717565727920666f722060008201527f6e6f6e6578697374656e7420746f6b656e000000000000000000000000000000602082015250565b7f4552433732313a20617070726f76656420717565727920666f72206e6f6e657860008201527f697374656e7420746f6b656e0000000000000000000000000000000000000000602082015250565b7f4552433732314d657461646174613a2055524920717565727920666f72206e6f60008201527f6e6578697374656e7420746f6b656e0000000000000000000000000000000000602082015250565b7f7b226e616d65223a202200000000000000000000000000000000000000000000600082015250565b7f4552433732313a20617070726f76616c20746f2063757272656e74206f776e6560008201527f7200000000000000000000000000000000000000000000000000000000000000602082015250565b7f646174613a6170706c69636174696f6e2f6a736f6e3b6261736536342c000000600082015250565b7f4552433732313a207472616e736665722063616c6c6572206973206e6f74206f60008201527f776e6572206e6f7220617070726f766564000000000000000000000000000000602082015250565b61341f81612bf9565b811461342a57600080fd5b50565b61343681612c0b565b811461344157600080fd5b50565b61344d81612c17565b811461345857600080fd5b50565b61346481612c63565b811461346f57600080fd5b5056fe416e204e465420772f20494420257320686173206265656e206d696e74656420746f2025734142434445464748494a4b4c4d4e4f505152535455565758595a6162636465666768696a6b6c6d6e6f707172737475767778797a303132333435363738392b2fa2646970667358221220aa270250d49efa048a96dba3ffb0ea339f065ee7fd9ddf4cd152f2c4a3f1ee8964736f6c634300080100333c73766720786d6c6e733d27687474703a2f2f7777772e77332e6f72672f323030302f73766727207072657365727665417370656374526174696f3d27784d696e594d696e206d656574272076696577426f783d273020302033353020333530273e3c7374796c653e2e62617365207b2066696c6c3a2077686974653b20666f6e742d66616d696c793a2073657269663b20666f6e742d73697a653a20323470783b207d3c2f7374796c653e3c726563742077696474683d273130302527206865696768743d2731303025272066696c6c3d27626c61636b27202f3e3c7465787420783d273530252720793d273530252720636c6173733d27626173652720646f6d696e616e742d626173656c696e653d276d6964646c652720746578742d616e63686f723d276d6964646c65273e54686973206973206d7920626c657373204e465420636f6e74726163742e20576f616821",
  "linkReferences": {},
  "deployedLinkReferences": {}
}