{
  "_format": "hh-sol-artifact-1",
  "contractName": "MyBlessNFT",
  "sourceName": "contracts/MyBlessNFT.sol",
  "abi": [
    {
      "inputs": [],
      "stateMutability": "nonpayable",
      "type": "constructor"
    },
    {
      "anonymous": false,
      "inputs": [
        {
          "indexed": true,
          "internalType": "address",
          "name": "owner",
          "type": "address"
        },
        {
          "indexed": true,
          "internalType": "address",
          "name": "approved",
          "type": "address"
        },
        {
          "indexed": true,
          "internalType": "uint256",
          "name": "tokenId",
          "type": "uint256"
        }
      ],
      "name": "Approval",
      "type": "event"
    },
    {
      "anonymous": false,
      "inputs": [
        {
          "indexed": true,
          "internalType": "address",
          "name": "owner",
          "type": "address"
        },
        {
          "indexed": true,
          "internalType": "address",
          "name": "operator",
          "type": "address"
        },
        {
          "indexed": false,
          "internalType": "bool",
          "name": "approved",
          "type": "bool"
        }
      ],
      "name": "ApprovalForAll",
      "type": "event"
    },
    {
      "anonymous": false,
      "inputs": [
        {
          "indexed": false,
          "internalType": "address",
          "name": "sender",
          "type": "address"
        },
        {
          "indexed": false,
          "internalType": "uint256",
          "name": "tokenId",
          "type": "uint256"
        },
        {
          "indexed": false,
          "internalType": "string",
          "name": "bless",
          "type": "string"
        }
      ],
      "name": "NFTMintInfo",
      "type": "event"
    },
    {
      "anonymous": false,
      "inputs": [
        {
          "indexed": true,
          "internalType": "address",
          "name": "from",
          "type": "address"
        },
        {
          "indexed": true,
          "internalType": "address",
          "name": "to",
          "type": "address"
        },
        {
          "indexed": true,
          "internalType": "uint256",
          "name": "tokenId",
          "type": "uint256"
        }
      ],
      "name": "Transfer",
      "type": "event"
    },
    {
      "inputs": [
        {
          "internalType": "address",
          "name": "to",
          "type": "address"
        },
        {
          "internalType": "uint256",
          "name": "tokenId",
          "type": "uint256"
        }
      ],
      "name": "approve",
      "outputs": [],
      "stateMutability": "nonpayable",
      "type": "function"
    },
    {
      "inputs": [
        {
          "internalType": "address",
          "name": "owner",
          "type": "address"
        }
      ],
      "name": "balanceOf",
      "outputs": [
        {
          "internalType": "uint256",
          "name": "",
          "type": "uint256"
        }
      ],
      "stateMutability": "view",
      "type": "function"
    },
    {
      "inputs": [
        {
          "internalType": "uint256",
          "name": "tokenId",
          "type": "uint256"
        }
      ],
      "name": "getApproved",
      "outputs": [
        {
          "internalType": "address",
          "name": "",
          "type": "address"
        }
      ],
      "stateMutability": "view",
      "type": "function"
    },
    {
      "inputs": [
        {
          "internalType": "address",
          "name": "owner",
          "type": "address"
        },
        {
          "internalType": "address",
          "name": "operator",
          "type": "address"
        }
      ],
      "name": "isApprovedForAll",
      "outputs": [
        {
          "internalType": "bool",
          "name": "",
          "type": "bool"
        }
      ],
      "stateMutability": "view",
      "type": "function"
    },
    {
      "inputs": [
        {
          "internalType": "string",
          "name": "bless",
          "type": "string"
        }
      ],
      "name": "makeBlessNFT",
      "outputs": [],
      "stateMutability": "nonpayable",
      "type": "function"
    },
    {
      "inputs": [],
      "name": "name",
      "outputs": [
        {
          "internalType": "string",
          "name": "",
          "type": "string"
        }
      ],
      "stateMutability": "view",
      "type": "function"
    },
    {
      "inputs": [
        {
          "internalType": "uint256",
          "name": "tokenId",
          "type": "uint256"
        }
      ],
      "name": "ownerOf",
      "outputs": [
        {
          "internalType": "address",
          "name": "",
          "type": "address"
        }
      ],
      "stateMutability": "view",
      "type": "function"
    },
    {
      "inputs": [
        {
          "internalType": "address",
          "name": "from",
          "type": "address"
        },
        {
          "internalType": "address",
          "name": "to",
          "type": "address"
        },
        {
          "internalType": "uint256",
          "name": "tokenId",
          "type": "uint256"
        }
      ],
      "name": "safeTransferFrom",
      "outputs": [],
      "stateMutability": "nonpayable",
      "type": "function"
    },
    {
      "inputs": [
        {
          "internalType": "address",
          "name": "from",
          "type": "address"
        },
        {
          "internalType": "address",
          "name": "to",
          "type": "address"
        },
        {
          "internalType": "uint256",
          "name": "tokenId",
          "type": "uint256"
        },
        {
          "internalType": "bytes",
          "name": "_data",
          "type": "bytes"
        }
      ],
      "name": "safeTransferFrom",
      "outputs": [],
      "stateMutability": "nonpayable",
      "type": "function"
    },
    {
      "inputs": [
        {
          "internalType": "address",
          "name": "operator",
          "type": "address"
        },
        {
          "internalType": "bool",
          "name": "approved",
          "type": "bool"
        }
      ],
      "name": "setApprovalForAll",
      "outputs": [],
      "stateMutability": "nonpayable",
      "type": "function"
    },
    {
      "inputs": [
        {
          "internalType": "bytes4",
          "name": "interfaceId",
          "type": "bytes4"
        }
      ],
      "name": "supportsInterface",
      "outputs": [
        {
          "internalType": "bool",
          "name": "",
          "type": "bool"
        }
      ],
      "stateMutability": "view",
      "type": "function"
    },
    {
      "inputs": [],
      "name": "symbol",
      "outputs": [
        {
          "internalType": "string",
          "name": "",
          "type": "string"
        }
      ],
      "stateMutability": "view",
      "type": "function"
    },
    {
      "inputs": [
        {
          "internalType": "uint256",
          "name": "tokenId",
          "type": "uint256"
        }
      ],
      "name": "tokenURI",
      "outputs": [
        {
          "internalType": "string",
          "name": "",
          "type": "string"
        }
      ],
      "stateMutability": "view",
      "type": "function"
    },
    {
      "inputs": [
        {
          "internalType": "address",
          "name": "from",
          "type": "address"
        },
        {
          "internalType": "address",
          "name": "to",
          "type": "address"
        },
        {
          "internalType": "uint256",
          "name": "tokenId",
          "type": "uint256"
        }
      ],
      "name": "transferFrom",
      "outputs": [],
      "stateMutability": "nonpayable",
      "type": "function"
    }
  ],
  "bytecode": "0x60806040523480156200001157600080fd5b506040518060400160405280600981526020017f426c657373204e465400000000000000000000000000000000000000000000008152506040518060400160405280600881526020017f426c6573734e4654000000000000000000000000000000000000000000000000815250816000908051906020019062000096929190620001b3565b508060019080519060200190620000af929190620001b3565b505050620000e1604051806060016040528060248152602001620031e460249139620000e760201b62000b6c1760201c565b62000390565b6200018781604051602401620000fe9190620002a4565b6040516020818303038152906040527f41304fac000000000000000000000000000000000000000000000000000000007bffffffffffffffffffffffffffffffffffffffffffffffffffffffff19166020820180517bffffffffffffffffffffffffffffffffffffffffffffffffffffffff83818316178352505050506200018a60201b60201c565b50565b60008151905060006a636f6e736f6c652e6c6f679050602083016000808483855afa5050505050565b828054620001c1906200031a565b90600052602060002090601f016020900481019282620001e5576000855562000231565b82601f106200020057805160ff191683800117855562000231565b8280016001018555821562000231579182015b828111156200023057825182559160200191906001019062000213565b5b50905062000240919062000244565b5090565b5b808211156200025f57600081600090555060010162000245565b5090565b60006200027082620002c8565b6200027c8185620002d3565b93506200028e818560208601620002e4565b62000299816200037f565b840191505092915050565b60006020820190508181036000830152620002c0818462000263565b905092915050565b600081519050919050565b600082825260208201905092915050565b60005b8381101562000304578082015181840152602081019050620002e7565b8381111562000314576000848401525b50505050565b600060028204905060018216806200033357607f821691505b602082108114156200034a576200034962000350565b5b50919050565b7f4e487b7100000000000000000000000000000000000000000000000000000000600052602260045260246000fd5b6000601f19601f8301169050919050565b612e4480620003a06000396000f3fe608060405234801561001057600080fd5b50600436106100ea5760003560e01c806370a082311161008c578063b74f82d911610066578063b74f82d91461025b578063b88d4fde14610277578063c87b56dd14610293578063e985e9c5146102c3576100ea565b806370a08231146101f157806395d89b4114610221578063a22cb4651461023f576100ea565b8063095ea7b3116100c8578063095ea7b31461016d57806323b872dd1461018957806342842e0e146101a55780636352211e146101c1576100ea565b806301ffc9a7146100ef57806306fdde031461011f578063081812fc1461013d575b600080fd5b61010960048036038101906101049190611e0f565b6102f3565b6040516101169190612294565b60405180910390f35b6101276103d5565b60405161013491906122af565b60405180910390f35b61015760048036038101906101529190611ea2565b610467565b60405161016491906121ef565b60405180910390f35b61018760048036038101906101829190611dd3565b6104ec565b005b6101a3600480360381019061019e9190611ccd565b610604565b005b6101bf60048036038101906101ba9190611ccd565b610664565b005b6101db60048036038101906101d69190611ea2565b610684565b6040516101e891906121ef565b60405180910390f35b61020b60048036038101906102069190611c68565b610736565b604051610218919061250f565b60405180910390f35b6102296107ee565b60405161023691906122af565b60405180910390f35b61025960048036038101906102549190611d97565b610880565b005b61027560048036038101906102709190611e61565b610896565b005b610291600480360381019061028c9190611d1c565b610924565b005b6102ad60048036038101906102a89190611ea2565b610986565b6040516102ba91906122af565b60405180910390f35b6102dd60048036038101906102d89190611c91565b610ad8565b6040516102ea9190612294565b60405180910390f35b60007f80ac58cd000000000000000000000000000000000000000000000000000000007bffffffffffffffffffffffffffffffffffffffffffffffffffffffff1916827bffffffffffffffffffffffffffffffffffffffffffffffffffffffff191614806103be57507f5b5e139f000000000000000000000000000000000000000000000000000000007bffffffffffffffffffffffffffffffffffffffffffffffffffffffff1916827bffffffffffffffffffffffffffffffffffffffffffffffffffffffff1916145b806103ce57506103cd82610c05565b5b9050919050565b6060600080546103e490612765565b80601f016020809104026020016040519081016040528092919081815260200182805461041090612765565b801561045d5780601f106104325761010080835404028352916020019161045d565b820191906000526020600020905b81548152906001019060200180831161044057829003601f168201915b5050505050905090565b600061047282610c6f565b6104b1576040517f08c379a00000000000000000000000000000000000000000000000000000000081526004016104a89061248f565b60405180910390fd5b6004600083815260200190815260200160002060009054906101000a900473ffffffffffffffffffffffffffffffffffffffff169050919050565b60006104f782610684565b90508073ffffffffffffffffffffffffffffffffffffffff168373ffffffffffffffffffffffffffffffffffffffff161415610568576040517f08c379a000000000000000000000000000000000000000000000000000000000815260040161055f906124cf565b60405180910390fd5b8073ffffffffffffffffffffffffffffffffffffffff16610587610cdb565b73ffffffffffffffffffffffffffffffffffffffff1614806105b657506105b5816105b0610cdb565b610ad8565b5b6105f5576040517f08c379a00000000000000000000000000000000000000000000000000000000081526004016105ec906123cf565b60405180910390fd5b6105ff8383610ce3565b505050565b61061561060f610cdb565b82610d9c565b610654576040517f08c379a000000000000000000000000000000000000000000000000000000000815260040161064b906124ef565b60405180910390fd5b61065f838383610e7a565b505050565b61067f83838360405180602001604052806000815250610924565b505050565b6000806002600084815260200190815260200160002060009054906101000a900473ffffffffffffffffffffffffffffffffffffffff169050600073ffffffffffffffffffffffffffffffffffffffff168173ffffffffffffffffffffffffffffffffffffffff16141561072d576040517f08c379a00000000000000000000000000000000000000000000000000000000081526004016107249061240f565b60405180910390fd5b80915050919050565b60008073ffffffffffffffffffffffffffffffffffffffff168273ffffffffffffffffffffffffffffffffffffffff1614156107a7576040517f08c379a000000000000000000000000000000000000000000000000000000000815260040161079e906123ef565b60405180910390fd5b600360008373ffffffffffffffffffffffffffffffffffffffff1673ffffffffffffffffffffffffffffffffffffffff168152602001908152602001600020549050919050565b6060600180546107fd90612765565b80601f016020809104026020016040519081016040528092919081815260200182805461082990612765565b80156108765780601f1061084b57610100808354040283529160200191610876565b820191906000526020600020905b81548152906001019060200180831161085957829003601f168201915b5050505050905090565b61089261088b610cdb565b83836110e1565b5050565b60006108a2600761124e565b90506108ae338261125c565b6108b8818361127a565b6108c260076112ee565b6108e5604051806060016040528060258152602001612dea602591398233611304565b7fa96c5381b455f337099a471ce3237002763c7f06f5aa93f2c0386a9bac4134c833828460405161091893929190612256565b60405180910390a15050565b61093561092f610cdb565b83610d9c565b610974576040517f08c379a000000000000000000000000000000000000000000000000000000000815260040161096b906124ef565b60405180910390fd5b610980848484846113a3565b50505050565b606061099182610c6f565b6109d0576040517f08c379a00000000000000000000000000000000000000000000000000000000081526004016109c79061246f565b60405180910390fd5b60006006600084815260200190815260200160002080546109f090612765565b80601f0160208091040260200160405190810160405280929190818152602001828054610a1c90612765565b8015610a695780601f10610a3e57610100808354040283529160200191610a69565b820191906000526020600020905b815481529060010190602001808311610a4c57829003601f168201915b505050505090506000610a7a6113ff565b9050600081511415610a90578192505050610ad3565b600082511115610ac5578082604051602001610aad9291906121cb565b60405160208183030381529060405292505050610ad3565b610ace84611416565b925050505b919050565b6000600560008473ffffffffffffffffffffffffffffffffffffffff1673ffffffffffffffffffffffffffffffffffffffff16815260200190815260200160002060008373ffffffffffffffffffffffffffffffffffffffff1673ffffffffffffffffffffffffffffffffffffffff16815260200190815260200160002060009054906101000a900460ff16905092915050565b610c0281604051602401610b8091906122af565b6040516020818303038152906040527f41304fac000000000000000000000000000000000000000000000000000000007bffffffffffffffffffffffffffffffffffffffffffffffffffffffff19166020820180517bffffffffffffffffffffffffffffffffffffffffffffffffffffffff83818316178352505050506114bd565b50565b60007f01ffc9a7000000000000000000000000000000000000000000000000000000007bffffffffffffffffffffffffffffffffffffffffffffffffffffffff1916827bffffffffffffffffffffffffffffffffffffffffffffffffffffffff1916149050919050565b60008073ffffffffffffffffffffffffffffffffffffffff166002600084815260200190815260200160002060009054906101000a900473ffffffffffffffffffffffffffffffffffffffff1673ffffffffffffffffffffffffffffffffffffffff1614159050919050565b600033905090565b816004600083815260200190815260200160002060006101000a81548173ffffffffffffffffffffffffffffffffffffffff021916908373ffffffffffffffffffffffffffffffffffffffff160217905550808273ffffffffffffffffffffffffffffffffffffffff16610d5683610684565b73ffffffffffffffffffffffffffffffffffffffff167f8c5be1e5ebec7d5bd14f71427d1e84f3dd0314c0f7b2291e5b200ac8c7c3b92560405160405180910390a45050565b6000610da782610c6f565b610de6576040517f08c379a0000000000000000000000000000000000000000000000000000000008152600401610ddd906123af565b60405180910390fd5b6000610df183610684565b90508073ffffffffffffffffffffffffffffffffffffffff168473ffffffffffffffffffffffffffffffffffffffff161480610e6057508373ffffffffffffffffffffffffffffffffffffffff16610e4884610467565b73ffffffffffffffffffffffffffffffffffffffff16145b80610e715750610e708185610ad8565b5b91505092915050565b8273ffffffffffffffffffffffffffffffffffffffff16610e9a82610684565b73ffffffffffffffffffffffffffffffffffffffff1614610ef0576040517f08c379a0000000000000000000000000000000000000000000000000000000008152600401610ee79061232f565b60405180910390fd5b600073ffffffffffffffffffffffffffffffffffffffff168273ffffffffffffffffffffffffffffffffffffffff161415610f60576040517f08c379a0000000000000000000000000000000000000000000000000000000008152600401610f579061236f565b60405180910390fd5b610f6b8383836114e6565b610f76600082610ce3565b6001600360008573ffffffffffffffffffffffffffffffffffffffff1673ffffffffffffffffffffffffffffffffffffffff1681526020019081526020016000206000828254610fc6919061267b565b925050819055506001600360008473ffffffffffffffffffffffffffffffffffffffff1673ffffffffffffffffffffffffffffffffffffffff168152602001908152602001600020600082825461101d91906125f4565b92505081905550816002600083815260200190815260200160002060006101000a81548173ffffffffffffffffffffffffffffffffffffffff021916908373ffffffffffffffffffffffffffffffffffffffff160217905550808273ffffffffffffffffffffffffffffffffffffffff168473ffffffffffffffffffffffffffffffffffffffff167fddf252ad1be2c89b69c2b068fc378daa952ba7f163c4a11628f55a4df523b3ef60405160405180910390a46110dc8383836114eb565b505050565b8173ffffffffffffffffffffffffffffffffffffffff168373ffffffffffffffffffffffffffffffffffffffff161415611150576040517f08c379a00000000000000000000000000000000000000000000000000000000081526004016111479061238f565b60405180910390fd5b80600560008573ffffffffffffffffffffffffffffffffffffffff1673ffffffffffffffffffffffffffffffffffffffff16815260200190815260200160002060008473ffffffffffffffffffffffffffffffffffffffff1673ffffffffffffffffffffffffffffffffffffffff16815260200190815260200160002060006101000a81548160ff0219169083151502179055508173ffffffffffffffffffffffffffffffffffffffff168373ffffffffffffffffffffffffffffffffffffffff167f17307eab39ab6107e8899845ad3d59bd9653f200f220920489ca2b5937696c31836040516112419190612294565b60405180910390a3505050565b600081600001549050919050565b6112768282604051806020016040528060008152506114f0565b5050565b61128382610c6f565b6112c2576040517f08c379a00000000000000000000000000000000000000000000000000000000081526004016112b99061242f565b60405180910390fd5b806006600084815260200190815260200160002090805190602001906112e9929190611a8c565b505050565b6001816000016000828254019250508190555050565b61139e83838360405160240161131c939291906122d1565b6040516020818303038152906040527fe3849f79000000000000000000000000000000000000000000000000000000007bffffffffffffffffffffffffffffffffffffffffffffffffffffffff19166020820180517bffffffffffffffffffffffffffffffffffffffffffffffffffffffff83818316178352505050506114bd565b505050565b6113ae848484610e7a565b6113ba8484848461154b565b6113f9576040517f08c379a00000000000000000000000000000000000000000000000000000000081526004016113f09061230f565b60405180910390fd5b50505050565b606060405180602001604052806000815250905090565b606061142182610c6f565b611460576040517f08c379a0000000000000000000000000000000000000000000000000000000008152600401611457906124af565b60405180910390fd5b600061146a6113ff565b9050600081511161148a57604051806020016040528060008152506114b5565b80611494846116e2565b6040516020016114a59291906121cb565b6040516020818303038152906040525b915050919050565b60008151905060006a636f6e736f6c652e6c6f679050602083016000808483855afa5050505050565b505050565b505050565b6114fa838361188f565b611507600084848461154b565b611546576040517f08c379a000000000000000000000000000000000000000000000000000000000815260040161153d9061230f565b60405180910390fd5b505050565b600061156c8473ffffffffffffffffffffffffffffffffffffffff16611a69565b156116d5578373ffffffffffffffffffffffffffffffffffffffff1663150b7a02611595610cdb565b8786866040518563ffffffff1660e01b81526004016115b7949392919061220a565b602060405180830381600087803b1580156115d157600080fd5b505af192505050801561160257506040513d601f19601f820116820180604052508101906115ff9190611e38565b60015b611685573d8060008114611632576040519150601f19603f3d011682016040523d82523d6000602084013e611637565b606091505b5060008151141561167d576040517f08c379a00000000000000000000000000000000000000000000000000000000081526004016116749061230f565b60405180910390fd5b805181602001fd5b63150b7a0260e01b7bffffffffffffffffffffffffffffffffffffffffffffffffffffffff1916817bffffffffffffffffffffffffffffffffffffffffffffffffffffffff1916149150506116da565b600190505b949350505050565b6060600082141561172a576040518060400160405280600181526020017f3000000000000000000000000000000000000000000000000000000000000000815250905061188a565b600082905060005b6000821461175c578080611745906127c8565b915050600a82611755919061264a565b9150611732565b60008167ffffffffffffffff81111561179e577f4e487b7100000000000000000000000000000000000000000000000000000000600052604160045260246000fd5b6040519080825280601f01601f1916602001820160405280156117d05781602001600182028036833780820191505090505b5090505b60008514611883576001826117e9919061267b565b9150600a856117f89190612811565b603061180491906125f4565b60f81b818381518110611840577f4e487b7100000000000000000000000000000000000000000000000000000000600052603260045260246000fd5b60200101907effffffffffffffffffffffffffffffffffffffffffffffffffffffffffffff1916908160001a905350600a8561187c919061264a565b94506117d4565b8093505050505b919050565b600073ffffffffffffffffffffffffffffffffffffffff168273ffffffffffffffffffffffffffffffffffffffff1614156118ff576040517f08c379a00000000000000000000000000000000000000000000000000000000081526004016118f69061244f565b60405180910390fd5b61190881610c6f565b15611948576040517f08c379a000000000000000000000000000000000000000000000000000000000815260040161193f9061234f565b60405180910390fd5b611954600083836114e6565b6001600360008473ffffffffffffffffffffffffffffffffffffffff1673ffffffffffffffffffffffffffffffffffffffff16815260200190815260200160002060008282546119a491906125f4565b92505081905550816002600083815260200190815260200160002060006101000a81548173ffffffffffffffffffffffffffffffffffffffff021916908373ffffffffffffffffffffffffffffffffffffffff160217905550808273ffffffffffffffffffffffffffffffffffffffff16600073ffffffffffffffffffffffffffffffffffffffff167fddf252ad1be2c89b69c2b068fc378daa952ba7f163c4a11628f55a4df523b3ef60405160405180910390a4611a65600083836114eb565b5050565b6000808273ffffffffffffffffffffffffffffffffffffffff163b119050919050565b828054611a9890612765565b90600052602060002090601f016020900481019282611aba5760008555611b01565b82601f10611ad357805160ff1916838001178555611b01565b82800160010185558215611b01579182015b82811115611b00578251825591602001919060010190611ae5565b5b509050611b0e9190611b12565b5090565b5b80821115611b2b576000816000905550600101611b13565b5090565b6000611b42611b3d8461254f565b61252a565b905082815260208101848484011115611b5a57600080fd5b611b65848285612723565b509392505050565b6000611b80611b7b84612580565b61252a565b905082815260208101848484011115611b9857600080fd5b611ba3848285612723565b509392505050565b600081359050611bba81612d8d565b92915050565b600081359050611bcf81612da4565b92915050565b600081359050611be481612dbb565b92915050565b600081519050611bf981612dbb565b92915050565b600082601f830112611c1057600080fd5b8135611c20848260208601611b2f565b91505092915050565b600082601f830112611c3a57600080fd5b8135611c4a848260208601611b6d565b91505092915050565b600081359050611c6281612dd2565b92915050565b600060208284031215611c7a57600080fd5b6000611c8884828501611bab565b91505092915050565b60008060408385031215611ca457600080fd5b6000611cb285828601611bab565b9250506020611cc385828601611bab565b9150509250929050565b600080600060608486031215611ce257600080fd5b6000611cf086828701611bab565b9350506020611d0186828701611bab565b9250506040611d1286828701611c53565b9150509250925092565b60008060008060808587031215611d3257600080fd5b6000611d4087828801611bab565b9450506020611d5187828801611bab565b9350506040611d6287828801611c53565b925050606085013567ffffffffffffffff811115611d7f57600080fd5b611d8b87828801611bff565b91505092959194509250565b60008060408385031215611daa57600080fd5b6000611db885828601611bab565b9250506020611dc985828601611bc0565b9150509250929050565b60008060408385031215611de657600080fd5b6000611df485828601611bab565b9250506020611e0585828601611c53565b9150509250929050565b600060208284031215611e2157600080fd5b6000611e2f84828501611bd5565b91505092915050565b600060208284031215611e4a57600080fd5b6000611e5884828501611bea565b91505092915050565b600060208284031215611e7357600080fd5b600082013567ffffffffffffffff811115611e8d57600080fd5b611e9984828501611c29565b91505092915050565b600060208284031215611eb457600080fd5b6000611ec284828501611c53565b91505092915050565b611ed4816126af565b82525050565b611ee3816126c1565b82525050565b6000611ef4826125b1565b611efe81856125c7565b9350611f0e818560208601612732565b611f17816128fe565b840191505092915050565b6000611f2d826125bc565b611f3781856125d8565b9350611f47818560208601612732565b611f50816128fe565b840191505092915050565b6000611f66826125bc565b611f7081856125e9565b9350611f80818560208601612732565b80840191505092915050565b6000611f996032836125d8565b9150611fa48261290f565b604082019050919050565b6000611fbc6025836125d8565b9150611fc78261295e565b604082019050919050565b6000611fdf601c836125d8565b9150611fea826129ad565b602082019050919050565b60006120026024836125d8565b915061200d826129d6565b604082019050919050565b60006120256019836125d8565b915061203082612a25565b602082019050919050565b6000612048602c836125d8565b915061205382612a4e565b604082019050919050565b600061206b6038836125d8565b915061207682612a9d565b604082019050919050565b600061208e602a836125d8565b915061209982612aec565b604082019050919050565b60006120b16029836125d8565b91506120bc82612b3b565b604082019050919050565b60006120d4602e836125d8565b91506120df82612b8a565b604082019050919050565b60006120f76020836125d8565b915061210282612bd9565b602082019050919050565b600061211a6031836125d8565b915061212582612c02565b604082019050919050565b600061213d602c836125d8565b915061214882612c51565b604082019050919050565b6000612160602f836125d8565b915061216b82612ca0565b604082019050919050565b60006121836021836125d8565b915061218e82612cef565b604082019050919050565b60006121a66031836125d8565b91506121b182612d3e565b604082019050919050565b6121c581612719565b82525050565b60006121d78285611f5b565b91506121e38284611f5b565b91508190509392505050565b60006020820190506122046000830184611ecb565b92915050565b600060808201905061221f6000830187611ecb565b61222c6020830186611ecb565b61223960408301856121bc565b818103606083015261224b8184611ee9565b905095945050505050565b600060608201905061226b6000830186611ecb565b61227860208301856121bc565b818103604083015261228a8184611f22565b9050949350505050565b60006020820190506122a96000830184611eda565b92915050565b600060208201905081810360008301526122c98184611f22565b905092915050565b600060608201905081810360008301526122eb8186611f22565b90506122fa60208301856121bc565b6123076040830184611ecb565b949350505050565b6000602082019050818103600083015261232881611f8c565b9050919050565b6000602082019050818103600083015261234881611faf565b9050919050565b6000602082019050818103600083015261236881611fd2565b9050919050565b6000602082019050818103600083015261238881611ff5565b9050919050565b600060208201905081810360008301526123a881612018565b9050919050565b600060208201905081810360008301526123c88161203b565b9050919050565b600060208201905081810360008301526123e88161205e565b9050919050565b6000602082019050818103600083015261240881612081565b9050919050565b60006020820190508181036000830152612428816120a4565b9050919050565b60006020820190508181036000830152612448816120c7565b9050919050565b60006020820190508181036000830152612468816120ea565b9050919050565b600060208201905081810360008301526124888161210d565b9050919050565b600060208201905081810360008301526124a881612130565b9050919050565b600060208201905081810360008301526124c881612153565b9050919050565b600060208201905081810360008301526124e881612176565b9050919050565b6000602082019050818103600083015261250881612199565b9050919050565b600060208201905061252460008301846121bc565b92915050565b6000612534612545565b90506125408282612797565b919050565b6000604051905090565b600067ffffffffffffffff82111561256a576125696128cf565b5b612573826128fe565b9050602081019050919050565b600067ffffffffffffffff82111561259b5761259a6128cf565b5b6125a4826128fe565b9050602081019050919050565b600081519050919050565b600081519050919050565b600082825260208201905092915050565b600082825260208201905092915050565b600081905092915050565b60006125ff82612719565b915061260a83612719565b9250827fffffffffffffffffffffffffffffffffffffffffffffffffffffffffffffffff0382111561263f5761263e612842565b5b828201905092915050565b600061265582612719565b915061266083612719565b9250826126705761266f612871565b5b828204905092915050565b600061268682612719565b915061269183612719565b9250828210156126a4576126a3612842565b5b828203905092915050565b60006126ba826126f9565b9050919050565b60008115159050919050565b60007fffffffff0000000000000000000000000000000000000000000000000000000082169050919050565b600073ffffffffffffffffffffffffffffffffffffffff82169050919050565b6000819050919050565b82818337600083830152505050565b60005b83811015612750578082015181840152602081019050612735565b8381111561275f576000848401525b50505050565b6000600282049050600182168061277d57607f821691505b60208210811415612791576127906128a0565b5b50919050565b6127a0826128fe565b810181811067ffffffffffffffff821117156127bf576127be6128cf565b5b80604052505050565b60006127d382612719565b91507fffffffffffffffffffffffffffffffffffffffffffffffffffffffffffffffff82141561280657612805612842565b5b600182019050919050565b600061281c82612719565b915061282783612719565b92508261283757612836612871565b5b828206905092915050565b7f4e487b7100000000000000000000000000000000000000000000000000000000600052601160045260246000fd5b7f4e487b7100000000000000000000000000000000000000000000000000000000600052601260045260246000fd5b7f4e487b7100000000000000000000000000000000000000000000000000000000600052602260045260246000fd5b7f4e487b7100000000000000000000000000000000000000000000000000000000600052604160045260246000fd5b6000601f19601f8301169050919050565b7f4552433732313a207472616e7366657220746f206e6f6e20455243373231526560008201527f63656976657220696d706c656d656e7465720000000000000000000000000000602082015250565b7f4552433732313a207472616e736665722066726f6d20696e636f72726563742060008201527f6f776e6572000000000000000000000000000000000000000000000000000000602082015250565b7f4552433732313a20746f6b656e20616c7265616479206d696e74656400000000600082015250565b7f4552433732313a207472616e7366657220746f20746865207a65726f2061646460008201527f7265737300000000000000000000000000000000000000000000000000000000602082015250565b7f4552433732313a20617070726f766520746f2063616c6c657200000000000000600082015250565b7f4552433732313a206f70657261746f7220717565727920666f72206e6f6e657860008201527f697374656e7420746f6b656e0000000000000000000000000000000000000000602082015250565b7f4552433732313a20617070726f76652063616c6c6572206973206e6f74206f7760008201527f6e6572206e6f7220617070726f76656420666f7220616c6c0000000000000000602082015250565b7f4552433732313a2062616c616e636520717565727920666f7220746865207a6560008201527f726f206164647265737300000000000000000000000000000000000000000000602082015250565b7f4552433732313a206f776e657220717565727920666f72206e6f6e657869737460008201527f656e7420746f6b656e0000000000000000000000000000000000000000000000602082015250565b7f45524337323155524953746f726167653a2055524920736574206f66206e6f6e60008201527f6578697374656e7420746f6b656e000000000000000000000000000000000000602082015250565b7f4552433732313a206d696e7420746f20746865207a65726f2061646472657373600082015250565b7f45524337323155524953746f726167653a2055524920717565727920666f722060008201527f6e6f6e6578697374656e7420746f6b656e000000000000000000000000000000602082015250565b7f4552433732313a20617070726f76656420717565727920666f72206e6f6e657860008201527f697374656e7420746f6b656e0000000000000000000000000000000000000000602082015250565b7f4552433732314d657461646174613a2055524920717565727920666f72206e6f60008201527f6e6578697374656e7420746f6b656e0000000000000000000000000000000000602082015250565b7f4552433732313a20617070726f76616c20746f2063757272656e74206f776e6560008201527f7200000000000000000000000000000000000000000000000000000000000000602082015250565b7f4552433732313a207472616e736665722063616c6c6572206973206e6f74206f60008201527f776e6572206e6f7220617070726f766564000000000000000000000000000000602082015250565b612d96816126af565b8114612da157600080fd5b50565b612dad816126c1565b8114612db857600080fd5b50565b612dc4816126cd565b8114612dcf57600080fd5b50565b612ddb81612719565b8114612de657600080fd5b5056fe416e204e465420772f20494420257320686173206265656e206d696e74656420746f202573a2646970667358221220d5dda1240b77c545185aaf7de43a71c621c81e02741a83e1e664b499e523c7b364736f6c6343000801003354686973206973206d7920626c657373204e465420636f6e74726163742e20576f616821",
  "linkReferences": {},
  "deployedLinkReferences": {}
}