{
    "_format": "hh-sol-artifact-1",
    "contractName": "MyEpicNFT",
    "sourceName": "contracts/MyEpicNFT.sol",
    "abi": [
        {
            "inputs": [],
            "stateMutability": "nonpayable",
            "type": "constructor"
        },
        {
            "anonymous": false,
            "inputs": [
                {
                    "indexed": true,
                    "internalType": "address",
                    "name": "owner",
                    "type": "address"
                },
                {
                    "indexed": true,
                    "internalType": "address",
                    "name": "approved",
                    "type": "address"
                },
                {
                    "indexed": true,
                    "internalType": "uint256",
                    "name": "tokenId",
                    "type": "uint256"
                }
            ],
            "name": "Approval",
            "type": "event"
        },
        {
            "anonymous": false,
            "inputs": [
                {
                    "indexed": true,
                    "internalType": "address",
                    "name": "owner",
                    "type": "address"
                },
                {
                    "indexed": true,
                    "internalType": "address",
                    "name": "operator",
                    "type": "address"
                },
                {
                    "indexed": false,
                    "internalType": "bool",
                    "name": "approved",
                    "type": "bool"
                }
            ],
            "name": "ApprovalForAll",
            "type": "event"
        },
        {
            "anonymous": false,
            "inputs": [
                {
                    "indexed": false,
                    "internalType": "address",
                    "name": "sender",
                    "type": "address"
                },
                {
                    "indexed": false,
                    "internalType": "uint256",
                    "name": "tokenId",
                    "type": "uint256"
                },
                {
                    "indexed": false,
                    "internalType": "string",
                    "name": "brand",
                    "type": "string"
                },
                {
                    "indexed": false,
                    "internalType": "string",
                    "name": "mark",
                    "type": "string"
                }
            ],
            "name": "NFTMintInfo",
            "type": "event"
        },
        {
            "anonymous": false,
            "inputs": [
                {
                    "indexed": true,
                    "internalType": "address",
                    "name": "from",
                    "type": "address"
                },
                {
                    "indexed": true,
                    "internalType": "address",
                    "name": "to",
                    "type": "address"
                },
                {
                    "indexed": true,
                    "internalType": "uint256",
                    "name": "tokenId",
                    "type": "uint256"
                }
            ],
            "name": "Transfer",
            "type": "event"
        },
        {
            "inputs": [
                {
                    "internalType": "address",
                    "name": "to",
                    "type": "address"
                },
                {
                    "internalType": "uint256",
                    "name": "tokenId",
                    "type": "uint256"
                }
            ],
            "name": "approve",
            "outputs": [],
            "stateMutability": "nonpayable",
            "type": "function"
        },
        {
            "inputs": [
                {
                    "internalType": "address",
                    "name": "owner",
                    "type": "address"
                }
            ],
            "name": "balanceOf",
            "outputs": [
                {
                    "internalType": "uint256",
                    "name": "",
                    "type": "uint256"
                }
            ],
            "stateMutability": "view",
            "type": "function"
        },
        {
            "inputs": [
                {
                    "internalType": "uint256",
                    "name": "tokenId",
                    "type": "uint256"
                }
            ],
            "name": "getApproved",
            "outputs": [
                {
                    "internalType": "address",
                    "name": "",
                    "type": "address"
                }
            ],
            "stateMutability": "view",
            "type": "function"
        },
        {
            "inputs": [],
            "name": "getTokenId",
            "outputs": [
                {
                    "internalType": "uint256",
                    "name": "tokenId",
                    "type": "uint256"
                },
                {
                    "internalType": "uint256",
                    "name": "MaxNum",
                    "type": "uint256"
                }
            ],
            "stateMutability": "view",
            "type": "function"
        },
        {
            "inputs": [
                {
                    "internalType": "address",
                    "name": "owner",
                    "type": "address"
                },
                {
                    "internalType": "address",
                    "name": "operator",
                    "type": "address"
                }
            ],
            "name": "isApprovedForAll",
            "outputs": [
                {
                    "internalType": "bool",
                    "name": "",
                    "type": "bool"
                }
            ],
            "stateMutability": "view",
            "type": "function"
        },
        {
            "inputs": [
                {
                    "internalType": "string",
                    "name": "brand",
                    "type": "string"
                }
            ],
            "name": "makeAnEpicNFT",
            "outputs": [],
            "stateMutability": "nonpayable",
            "type": "function"
        },
        {
            "inputs": [],
            "name": "name",
            "outputs": [
                {
                    "internalType": "string",
                    "name": "",
                    "type": "string"
                }
            ],
            "stateMutability": "view",
            "type": "function"
        },
        {
            "inputs": [
                {
                    "internalType": "uint256",
                    "name": "tokenId",
                    "type": "uint256"
                }
            ],
            "name": "ownerOf",
            "outputs": [
                {
                    "internalType": "address",
                    "name": "",
                    "type": "address"
                }
            ],
            "stateMutability": "view",
            "type": "function"
        },
        {
            "inputs": [
                {
                    "internalType": "address",
                    "name": "from",
                    "type": "address"
                },
                {
                    "internalType": "address",
                    "name": "to",
                    "type": "address"
                },
                {
                    "internalType": "uint256",
                    "name": "tokenId",
                    "type": "uint256"
                }
            ],
            "name": "safeTransferFrom",
            "outputs": [],
            "stateMutability": "nonpayable",
            "type": "function"
        },
        {
            "inputs": [
                {
                    "internalType": "address",
                    "name": "from",
                    "type": "address"
                },
                {
                    "internalType": "address",
                    "name": "to",
                    "type": "address"
                },
                {
                    "internalType": "uint256",
                    "name": "tokenId",
                    "type": "uint256"
                },
                {
                    "internalType": "bytes",
                    "name": "_data",
                    "type": "bytes"
                }
            ],
            "name": "safeTransferFrom",
            "outputs": [],
            "stateMutability": "nonpayable",
            "type": "function"
        },
        {
            "inputs": [
                {
                    "internalType": "address",
                    "name": "operator",
                    "type": "address"
                },
                {
                    "internalType": "bool",
                    "name": "approved",
                    "type": "bool"
                }
            ],
            "name": "setApprovalForAll",
            "outputs": [],
            "stateMutability": "nonpayable",
            "type": "function"
        },
        {
            "inputs": [
                {
                    "internalType": "bytes4",
                    "name": "interfaceId",
                    "type": "bytes4"
                }
            ],
            "name": "supportsInterface",
            "outputs": [
                {
                    "internalType": "bool",
                    "name": "",
                    "type": "bool"
                }
            ],
            "stateMutability": "view",
            "type": "function"
        },
        {
            "inputs": [],
            "name": "symbol",
            "outputs": [
                {
                    "internalType": "string",
                    "name": "",
                    "type": "string"
                }
            ],
            "stateMutability": "view",
            "type": "function"
        },
        {
            "inputs": [
                {
                    "internalType": "uint256",
                    "name": "tokenId",
                    "type": "uint256"
                }
            ],
            "name": "tokenURI",
            "outputs": [
                {
                    "internalType": "string",
                    "name": "",
                    "type": "string"
                }
            ],
            "stateMutability": "view",
            "type": "function"
        },
        {
            "inputs": [
                {
                    "internalType": "address",
                    "name": "from",
                    "type": "address"
                },
                {
                    "internalType": "address",
                    "name": "to",
                    "type": "address"
                },
                {
                    "internalType": "uint256",
                    "name": "tokenId",
                    "type": "uint256"
                }
            ],
            "name": "transferFrom",
            "outputs": [],
            "stateMutability": "nonpayable",
            "type": "function"
        }
    ],
    "bytecode": "0x6080604052606460085560405180610160016040528061012f815260200162003b1f61012f9139600990805190602001906200003d92919062000209565b503480156200004b57600080fd5b506040518060400160405280600981526020017f5371756172654e465400000000000000000000000000000000000000000000008152506040518060400160405280600681526020017f53515541524500000000000000000000000000000000000000000000000000008152508160009080519060200190620000d092919062000209565b508060019080519060200190620000e992919062000209565b505050620001376040518060400160405280601e81526020017f54686973206973206d79204e465420636f6e74726163742e20576f61682100008152506200013d60201b62000d581760201c565b620003e6565b620001dd81604051602401620001549190620002fa565b6040516020818303038152906040527f41304fac000000000000000000000000000000000000000000000000000000007bffffffffffffffffffffffffffffffffffffffffffffffffffffffff19166020820180517bffffffffffffffffffffffffffffffffffffffffffffffffffffffff8381831617835250505050620001e060201b60201c565b50565b60008151905060006a636f6e736f6c652e6c6f679050602083016000808483855afa5050505050565b828054620002179062000370565b90600052602060002090601f0160209004810192826200023b576000855562000287565b82601f106200025657805160ff191683800117855562000287565b8280016001018555821562000287579182015b828111156200028657825182559160200191906001019062000269565b5b5090506200029691906200029a565b5090565b5b80821115620002b55760008160009055506001016200029b565b5090565b6000620002c6826200031e565b620002d2818562000329565b9350620002e48185602086016200033a565b620002ef81620003d5565b840191505092915050565b60006020820190508181036000830152620003168184620002b9565b905092915050565b600081519050919050565b600082825260208201905092915050565b60005b838110156200035a5780820151818401526020810190506200033d565b838111156200036a576000848401525b50505050565b600060028204905060018216806200038957607f821691505b60208210811415620003a0576200039f620003a6565b5b50919050565b7f4e487b7100000000000000000000000000000000000000000000000000000000600052602260045260246000fd5b6000601f19601f8301169050919050565b61372980620003f66000396000f3fe608060405234801561001057600080fd5b50600436106100f55760003560e01c806342842e0e11610097578063a22cb46511610066578063a22cb46514610285578063b88d4fde146102a1578063c87b56dd146102bd578063e985e9c5146102ed576100f5565b806342842e0e146101eb5780636352211e1461020757806370a082311461023757806395d89b4114610267576100f5565b8063081812fc116100d3578063081812fc14610167578063095ea7b31461019757806323b872dd146101b357806339fa8daf146101cf576100f5565b8063010a38f5146100fa57806301ffc9a71461011957806306fdde0314610149575b600080fd5b61010261031d565b604051610110929190612b7d565b60405180910390f35b610133600480360381019061012e91906121b9565b610335565b60405161014091906128c7565b60405180910390f35b610151610417565b60405161015e91906128e2565b60405180910390f35b610181600480360381019061017c919061224c565b6104a9565b60405161018e919061280d565b60405180910390f35b6101b160048036038101906101ac919061217d565b61052e565b005b6101cd60048036038101906101c89190612077565b610646565b005b6101e960048036038101906101e4919061220b565b6106a6565b005b61020560048036038101906102009190612077565b6108de565b005b610221600480360381019061021c919061224c565b6108fe565b60405161022e919061280d565b60405180910390f35b610251600480360381019061024c9190612012565b6109b0565b60405161025e9190612b62565b60405180910390f35b61026f610a68565b60405161027c91906128e2565b60405180910390f35b61029f600480360381019061029a9190612141565b610afa565b005b6102bb60048036038101906102b691906120c6565b610b10565b005b6102d760048036038101906102d2919061224c565b610b72565b6040516102e491906128e2565b60405180910390f35b6103076004803603810190610302919061203b565b610cc4565b60405161031491906128c7565b60405180910390f35b60008061032a6007610df1565b915060085490509091565b60007f80ac58cd000000000000000000000000000000000000000000000000000000007bffffffffffffffffffffffffffffffffffffffffffffffffffffffff1916827bffffffffffffffffffffffffffffffffffffffffffffffffffffffff1916148061040057507f5b5e139f000000000000000000000000000000000000000000000000000000007bffffffffffffffffffffffffffffffffffffffffffffffffffffffff1916827bffffffffffffffffffffffffffffffffffffffffffffffffffffffff1916145b80610410575061040f82610dff565b5b9050919050565b60606000805461042690612e50565b80601f016020809104026020016040519081016040528092919081815260200182805461045290612e50565b801561049f5780601f106104745761010080835404028352916020019161049f565b820191906000526020600020905b81548152906001019060200180831161048257829003601f168201915b5050505050905090565b60006104b482610e69565b6104f3576040517f08c379a00000000000000000000000000000000000000000000000000000000081526004016104ea90612ac2565b60405180910390fd5b6004600083815260200190815260200160002060009054906101000a900473ffffffffffffffffffffffffffffffffffffffff169050919050565b6000610539826108fe565b90508073ffffffffffffffffffffffffffffffffffffffff168373ffffffffffffffffffffffffffffffffffffffff1614156105aa576040517f08c379a00000000000000000000000000000000000000000000000000000000081526004016105a190612b22565b60405180910390fd5b8073ffffffffffffffffffffffffffffffffffffffff166105c9610ed5565b73ffffffffffffffffffffffffffffffffffffffff1614806105f857506105f7816105f2610ed5565b610cc4565b5b610637576040517f08c379a000000000000000000000000000000000000000000000000000000000815260040161062e90612a02565b60405180910390fd5b6106418383610edd565b505050565b610657610651610ed5565b82610f96565b610696576040517f08c379a000000000000000000000000000000000000000000000000000000000815260040161068d90612b42565b60405180910390fd5b6106a1838383611074565b505050565b60006106b26007610df1565b905060085481106106f8576040517f08c379a00000000000000000000000000000000000000000000000000000000081526004016106ef90612b02565b60405180910390fd5b600061070f60018361070a9190612c85565b6112db565b61071a6008546112db565b8460405160200161072d93929190612730565b60405160208183030381529060405290506000600982604051602001610754929190612777565b604051602081830303815290604052905060006107ad61077f60018661077a9190612c85565b6112db565b61078884611488565b6040516020016107999291906127a6565b604051602081830303815290604052611488565b90506000816040516020016107c291906127eb565b60405160208183030381529060405290506108116040518060400160405280601581526020017f0a2d2d2d2d2d2d2d2d2d2d2d2d2d2d2d2d2d2d2d2d0000000000000000000000815250610d58565b61081a81610d58565b6108586040518060400160405280601581526020017f2d2d2d2d2d2d2d2d2d2d2d2d2d2d2d2d2d2d2d2d0a0000000000000000000000815250610d58565b6108623386611646565b61086c8582611664565b61087660076116d8565b61089960405180606001604052806025815260200161368f6025913986336116ee565b7f11718776b52331799f879f01c0aca41174b3c6edd18fba56cb6b47d1f548ad1b338688876040516108ce9493929190612874565b60405180910390a1505050505050565b6108f983838360405180602001604052806000815250610b10565b505050565b6000806002600084815260200190815260200160002060009054906101000a900473ffffffffffffffffffffffffffffffffffffffff169050600073ffffffffffffffffffffffffffffffffffffffff168173ffffffffffffffffffffffffffffffffffffffff1614156109a7576040517f08c379a000000000000000000000000000000000000000000000000000000000815260040161099e90612a42565b60405180910390fd5b80915050919050565b60008073ffffffffffffffffffffffffffffffffffffffff168273ffffffffffffffffffffffffffffffffffffffff161415610a21576040517f08c379a0000000000000000000000000000000000000000000000000000000008152600401610a1890612a22565b60405180910390fd5b600360008373ffffffffffffffffffffffffffffffffffffffff1673ffffffffffffffffffffffffffffffffffffffff168152602001908152602001600020549050919050565b606060018054610a7790612e50565b80601f0160208091040260200160405190810160405280929190818152602001828054610aa390612e50565b8015610af05780601f10610ac557610100808354040283529160200191610af0565b820191906000526020600020905b815481529060010190602001808311610ad357829003601f168201915b5050505050905090565b610b0c610b05610ed5565b838361178d565b5050565b610b21610b1b610ed5565b83610f96565b610b60576040517f08c379a0000000000000000000000000000000000000000000000000000000008152600401610b5790612b42565b60405180910390fd5b610b6c848484846118fa565b50505050565b6060610b7d82610e69565b610bbc576040517f08c379a0000000000000000000000000000000000000000000000000000000008152600401610bb390612aa2565b60405180910390fd5b6000600660008481526020019081526020016000208054610bdc90612e50565b80601f0160208091040260200160405190810160405280929190818152602001828054610c0890612e50565b8015610c555780601f10610c2a57610100808354040283529160200191610c55565b820191906000526020600020905b815481529060010190602001808311610c3857829003601f168201915b505050505090506000610c66611956565b9050600081511415610c7c578192505050610cbf565b600082511115610cb1578082604051602001610c9992919061270c565b60405160208183030381529060405292505050610cbf565b610cba8461196d565b925050505b919050565b6000600560008473ffffffffffffffffffffffffffffffffffffffff1673ffffffffffffffffffffffffffffffffffffffff16815260200190815260200160002060008373ffffffffffffffffffffffffffffffffffffffff1673ffffffffffffffffffffffffffffffffffffffff16815260200190815260200160002060009054906101000a900460ff16905092915050565b610dee81604051602401610d6c91906128e2565b6040516020818303038152906040527f41304fac000000000000000000000000000000000000000000000000000000007bffffffffffffffffffffffffffffffffffffffffffffffffffffffff19166020820180517bffffffffffffffffffffffffffffffffffffffffffffffffffffffff8381831617835250505050611a14565b50565b600081600001549050919050565b60007f01ffc9a7000000000000000000000000000000000000000000000000000000007bffffffffffffffffffffffffffffffffffffffffffffffffffffffff1916827bffffffffffffffffffffffffffffffffffffffffffffffffffffffff1916149050919050565b60008073ffffffffffffffffffffffffffffffffffffffff166002600084815260200190815260200160002060009054906101000a900473ffffffffffffffffffffffffffffffffffffffff1673ffffffffffffffffffffffffffffffffffffffff1614159050919050565b600033905090565b816004600083815260200190815260200160002060006101000a81548173ffffffffffffffffffffffffffffffffffffffff021916908373ffffffffffffffffffffffffffffffffffffffff160217905550808273ffffffffffffffffffffffffffffffffffffffff16610f50836108fe565b73ffffffffffffffffffffffffffffffffffffffff167f8c5be1e5ebec7d5bd14f71427d1e84f3dd0314c0f7b2291e5b200ac8c7c3b92560405160405180910390a45050565b6000610fa182610e69565b610fe0576040517f08c379a0000000000000000000000000000000000000000000000000000000008152600401610fd7906129e2565b60405180910390fd5b6000610feb836108fe565b90508073ffffffffffffffffffffffffffffffffffffffff168473ffffffffffffffffffffffffffffffffffffffff16148061105a57508373ffffffffffffffffffffffffffffffffffffffff16611042846104a9565b73ffffffffffffffffffffffffffffffffffffffff16145b8061106b575061106a8185610cc4565b5b91505092915050565b8273ffffffffffffffffffffffffffffffffffffffff16611094826108fe565b73ffffffffffffffffffffffffffffffffffffffff16146110ea576040517f08c379a00000000000000000000000000000000000000000000000000000000081526004016110e190612962565b60405180910390fd5b600073ffffffffffffffffffffffffffffffffffffffff168273ffffffffffffffffffffffffffffffffffffffff16141561115a576040517f08c379a0000000000000000000000000000000000000000000000000000000008152600401611151906129a2565b60405180910390fd5b611165838383611a3d565b611170600082610edd565b6001600360008573ffffffffffffffffffffffffffffffffffffffff1673ffffffffffffffffffffffffffffffffffffffff16815260200190815260200160002060008282546111c09190612d66565b925050819055506001600360008473ffffffffffffffffffffffffffffffffffffffff1673ffffffffffffffffffffffffffffffffffffffff16815260200190815260200160002060008282546112179190612c85565b92505081905550816002600083815260200190815260200160002060006101000a81548173ffffffffffffffffffffffffffffffffffffffff021916908373ffffffffffffffffffffffffffffffffffffffff160217905550808273ffffffffffffffffffffffffffffffffffffffff168473ffffffffffffffffffffffffffffffffffffffff167fddf252ad1be2c89b69c2b068fc378daa952ba7f163c4a11628f55a4df523b3ef60405160405180910390a46112d6838383611a42565b505050565b60606000821415611323576040518060400160405280600181526020017f30000000000000000000000000000000000000000000000000000000000000008152509050611483565b600082905060005b6000821461135557808061133e90612eb3565b915050600a8261134e9190612cdb565b915061132b565b60008167ffffffffffffffff811115611397577f4e487b7100000000000000000000000000000000000000000000000000000000600052604160045260246000fd5b6040519080825280601f01601f1916602001820160405280156113c95781602001600182028036833780820191505090505b5090505b6000851461147c576001826113e29190612d66565b9150600a856113f19190612efc565b60306113fd9190612c85565b60f81b818381518110611439577f4e487b7100000000000000000000000000000000000000000000000000000000600052603260045260246000fd5b60200101907effffffffffffffffffffffffffffffffffffffffffffffffffffffffffffff1916908160001a905350600a856114759190612cdb565b94506113cd565b8093505050505b919050565b606060008251905060008114156114b15760405180602001604052806000815250915050611641565b600060036002836114c29190612c85565b6114cc9190612cdb565b60046114d89190612d0c565b905060006020826114e99190612c85565b67ffffffffffffffff811115611528577f4e487b7100000000000000000000000000000000000000000000000000000000600052604160045260246000fd5b6040519080825280601f01601f19166020018201604052801561155a5781602001600182028036833780820191505090505b50905060006040518060600160405280604081526020016136b4604091399050600181016020830160005b868110156115fe5760038101905062ffffff818a015116603f8160121c168401518060081b905060ff603f83600c1c1686015116810190508060081b905060ff603f8360061c1686015116810190508060081b905060ff603f831686015116810190508060e01b90508084526004840193505050611585565b506003860660018114611618576002811461162857611633565b613d3d60f01b6002830352611633565b603d60f81b60018303525b508484525050819450505050505b919050565b611660828260405180602001604052806000815250611a47565b5050565b61166d82610e69565b6116ac576040517f08c379a00000000000000000000000000000000000000000000000000000000081526004016116a390612a62565b60405180910390fd5b806006600084815260200190815260200160002090805190602001906116d3929190611e36565b505050565b6001816000016000828254019250508190555050565b61178883838360405160240161170693929190612904565b6040516020818303038152906040527fe3849f79000000000000000000000000000000000000000000000000000000007bffffffffffffffffffffffffffffffffffffffffffffffffffffffff19166020820180517bffffffffffffffffffffffffffffffffffffffffffffffffffffffff8381831617835250505050611a14565b505050565b8173ffffffffffffffffffffffffffffffffffffffff168373ffffffffffffffffffffffffffffffffffffffff1614156117fc576040517f08c379a00000000000000000000000000000000000000000000000000000000081526004016117f3906129c2565b60405180910390fd5b80600560008573ffffffffffffffffffffffffffffffffffffffff1673ffffffffffffffffffffffffffffffffffffffff16815260200190815260200160002060008473ffffffffffffffffffffffffffffffffffffffff1673ffffffffffffffffffffffffffffffffffffffff16815260200190815260200160002060006101000a81548160ff0219169083151502179055508173ffffffffffffffffffffffffffffffffffffffff168373ffffffffffffffffffffffffffffffffffffffff167f17307eab39ab6107e8899845ad3d59bd9653f200f220920489ca2b5937696c31836040516118ed91906128c7565b60405180910390a3505050565b611905848484611074565b61191184848484611aa2565b611950576040517f08c379a000000000000000000000000000000000000000000000000000000000815260040161194790612942565b60405180910390fd5b50505050565b606060405180602001604052806000815250905090565b606061197882610e69565b6119b7576040517f08c379a00000000000000000000000000000000000000000000000000000000081526004016119ae90612ae2565b60405180910390fd5b60006119c1611956565b905060008151116119e15760405180602001604052806000815250611a0c565b806119eb846112db565b6040516020016119fc92919061270c565b6040516020818303038152906040525b915050919050565b60008151905060006a636f6e736f6c652e6c6f679050602083016000808483855afa5050505050565b505050565b505050565b611a518383611c39565b611a5e6000848484611aa2565b611a9d576040517f08c379a0000000000000000000000000000000000000000000000000000000008152600401611a9490612942565b60405180910390fd5b505050565b6000611ac38473ffffffffffffffffffffffffffffffffffffffff16611e13565b15611c2c578373ffffffffffffffffffffffffffffffffffffffff1663150b7a02611aec610ed5565b8786866040518563ffffffff1660e01b8152600401611b0e9493929190612828565b602060405180830381600087803b158015611b2857600080fd5b505af1925050508015611b5957506040513d601f19601f82011682018060405250810190611b5691906121e2565b60015b611bdc573d8060008114611b89576040519150601f19603f3d011682016040523d82523d6000602084013e611b8e565b606091505b50600081511415611bd4576040517f08c379a0000000000000000000000000000000000000000000000000000000008152600401611bcb90612942565b60405180910390fd5b805181602001fd5b63150b7a0260e01b7bffffffffffffffffffffffffffffffffffffffffffffffffffffffff1916817bffffffffffffffffffffffffffffffffffffffffffffffffffffffff191614915050611c31565b600190505b949350505050565b600073ffffffffffffffffffffffffffffffffffffffff168273ffffffffffffffffffffffffffffffffffffffff161415611ca9576040517f08c379a0000000000000000000000000000000000000000000000000000000008152600401611ca090612a82565b60405180910390fd5b611cb281610e69565b15611cf2576040517f08c379a0000000000000000000000000000000000000000000000000000000008152600401611ce990612982565b60405180910390fd5b611cfe60008383611a3d565b6001600360008473ffffffffffffffffffffffffffffffffffffffff1673ffffffffffffffffffffffffffffffffffffffff1681526020019081526020016000206000828254611d4e9190612c85565b92505081905550816002600083815260200190815260200160002060006101000a81548173ffffffffffffffffffffffffffffffffffffffff021916908373ffffffffffffffffffffffffffffffffffffffff160217905550808273ffffffffffffffffffffffffffffffffffffffff16600073ffffffffffffffffffffffffffffffffffffffff167fddf252ad1be2c89b69c2b068fc378daa952ba7f163c4a11628f55a4df523b3ef60405160405180910390a4611e0f60008383611a42565b5050565b6000808273ffffffffffffffffffffffffffffffffffffffff163b119050919050565b828054611e4290612e50565b90600052602060002090601f016020900481019282611e645760008555611eab565b82601f10611e7d57805160ff1916838001178555611eab565b82800160010185558215611eab579182015b82811115611eaa578251825591602001919060010190611e8f565b5b509050611eb89190611ebc565b5090565b5b80821115611ed5576000816000905550600101611ebd565b5090565b6000611eec611ee784612bcb565b612ba6565b905082815260208101848484011115611f0457600080fd5b611f0f848285612e0e565b509392505050565b6000611f2a611f2584612bfc565b612ba6565b905082815260208101848484011115611f4257600080fd5b611f4d848285612e0e565b509392505050565b600081359050611f6481613632565b92915050565b600081359050611f7981613649565b92915050565b600081359050611f8e81613660565b92915050565b600081519050611fa381613660565b92915050565b600082601f830112611fba57600080fd5b8135611fca848260208601611ed9565b91505092915050565b600082601f830112611fe457600080fd5b8135611ff4848260208601611f17565b91505092915050565b60008135905061200c81613677565b92915050565b60006020828403121561202457600080fd5b600061203284828501611f55565b91505092915050565b6000806040838503121561204e57600080fd5b600061205c85828601611f55565b925050602061206d85828601611f55565b9150509250929050565b60008060006060848603121561208c57600080fd5b600061209a86828701611f55565b93505060206120ab86828701611f55565b92505060406120bc86828701611ffd565b9150509250925092565b600080600080608085870312156120dc57600080fd5b60006120ea87828801611f55565b94505060206120fb87828801611f55565b935050604061210c87828801611ffd565b925050606085013567ffffffffffffffff81111561212957600080fd5b61213587828801611fa9565b91505092959194509250565b6000806040838503121561215457600080fd5b600061216285828601611f55565b925050602061217385828601611f6a565b9150509250929050565b6000806040838503121561219057600080fd5b600061219e85828601611f55565b92505060206121af85828601611ffd565b9150509250929050565b6000602082840312156121cb57600080fd5b60006121d984828501611f7f565b91505092915050565b6000602082840312156121f457600080fd5b600061220284828501611f94565b91505092915050565b60006020828403121561221d57600080fd5b600082013567ffffffffffffffff81111561223757600080fd5b61224384828501611fd3565b91505092915050565b60006020828403121561225e57600080fd5b600061226c84828501611ffd565b91505092915050565b61227e81612d9a565b82525050565b61228d81612dac565b82525050565b600061229e82612c42565b6122a88185612c58565b93506122b8818560208601612e1d565b6122c181612fe9565b840191505092915050565b60006122d782612c4d565b6122e18185612c69565b93506122f1818560208601612e1d565b6122fa81612fe9565b840191505092915050565b600061231082612c4d565b61231a8185612c7a565b935061232a818560208601612e1d565b80840191505092915050565b6000815461234381612e50565b61234d8186612c7a565b945060018216600081146123685760018114612379576123ac565b60ff198316865281860193506123ac565b61238285612c2d565b60005b838110156123a457815481890152600182019150602081019050612385565b838801955050505b50505092915050565b60006123c2603283612c69565b91506123cd82612ffa565b604082019050919050565b60006123e5602583612c69565b91506123f082613049565b604082019050919050565b6000612408601c83612c69565b915061241382613098565b602082019050919050565b600061242b602483612c69565b9150612436826130c1565b604082019050919050565b600061244e601983612c69565b915061245982613110565b602082019050919050565b6000612471606383612c7a565b915061247c82613139565b606382019050919050565b6000612494602c83612c69565b915061249f826131d4565b604082019050919050565b60006124b7600d83612c7a565b91506124c282613223565b600d82019050919050565b60006124da603883612c69565b91506124e58261324c565b604082019050919050565b60006124fd602a83612c69565b91506125088261329b565b604082019050919050565b6000612520602983612c69565b915061252b826132ea565b604082019050919050565b6000612543602e83612c69565b915061254e82613339565b604082019050919050565b6000612566600483612c7a565b915061257182613388565b600482019050919050565b6000612589600283612c7a565b9150612594826133b1565b600282019050919050565b60006125ac602083612c69565b91506125b7826133da565b602082019050919050565b60006125cf603183612c69565b91506125da82613403565b604082019050919050565b60006125f2602c83612c69565b91506125fd82613452565b604082019050919050565b6000612615602f83612c69565b9150612620826134a1565b604082019050919050565b6000612638601683612c69565b9150612643826134f0565b602082019050919050565b600061265b600a83612c7a565b915061266682613519565b600a82019050919050565b600061267e602183612c69565b915061268982613542565b604082019050919050565b60006126a1601d83612c7a565b91506126ac82613591565b601d82019050919050565b60006126c4603183612c69565b91506126cf826135ba565b604082019050919050565b60006126e7600383612c7a565b91506126f282613609565b600382019050919050565b61270681612e04565b82525050565b60006127188285612305565b91506127248284612305565b91508190509392505050565b600061273c8286612305565b915061274782612559565b91506127538285612305565b915061275e826126da565b915061276a8284612305565b9150819050949350505050565b60006127838285612336565b915061278f8284612305565b915061279a826124aa565b91508190509392505050565b60006127b18261264e565b91506127bd8285612305565b91506127c882612464565b91506127d48284612305565b91506127df8261257c565b91508190509392505050565b60006127f682612694565b91506128028284612305565b915081905092915050565b60006020820190506128226000830184612275565b92915050565b600060808201905061283d6000830187612275565b61284a6020830186612275565b61285760408301856126fd565b81810360608301526128698184612293565b905095945050505050565b60006080820190506128896000830187612275565b61289660208301866126fd565b81810360408301526128a881856122cc565b905081810360608301526128bc81846122cc565b905095945050505050565b60006020820190506128dc6000830184612284565b92915050565b600060208201905081810360008301526128fc81846122cc565b905092915050565b6000606082019050818103600083015261291e81866122cc565b905061292d60208301856126fd565b61293a6040830184612275565b949350505050565b6000602082019050818103600083015261295b816123b5565b9050919050565b6000602082019050818103600083015261297b816123d8565b9050919050565b6000602082019050818103600083015261299b816123fb565b9050919050565b600060208201905081810360008301526129bb8161241e565b9050919050565b600060208201905081810360008301526129db81612441565b9050919050565b600060208201905081810360008301526129fb81612487565b9050919050565b60006020820190508181036000830152612a1b816124cd565b9050919050565b60006020820190508181036000830152612a3b816124f0565b9050919050565b60006020820190508181036000830152612a5b81612513565b9050919050565b60006020820190508181036000830152612a7b81612536565b9050919050565b60006020820190508181036000830152612a9b8161259f565b9050919050565b60006020820190508181036000830152612abb816125c2565b9050919050565b60006020820190508181036000830152612adb816125e5565b9050919050565b60006020820190508181036000830152612afb81612608565b9050919050565b60006020820190508181036000830152612b1b8161262b565b9050919050565b60006020820190508181036000830152612b3b81612671565b9050919050565b60006020820190508181036000830152612b5b816126b7565b9050919050565b6000602082019050612b7760008301846126fd565b92915050565b6000604082019050612b9260008301856126fd565b612b9f60208301846126fd565b9392505050565b6000612bb0612bc1565b9050612bbc8282612e82565b919050565b6000604051905090565b600067ffffffffffffffff821115612be657612be5612fba565b5b612bef82612fe9565b9050602081019050919050565b600067ffffffffffffffff821115612c1757612c16612fba565b5b612c2082612fe9565b9050602081019050919050565b60008190508160005260206000209050919050565b600081519050919050565b600081519050919050565b600082825260208201905092915050565b600082825260208201905092915050565b600081905092915050565b6000612c9082612e04565b9150612c9b83612e04565b9250827fffffffffffffffffffffffffffffffffffffffffffffffffffffffffffffffff03821115612cd057612ccf612f2d565b5b828201905092915050565b6000612ce682612e04565b9150612cf183612e04565b925082612d0157612d00612f5c565b5b828204905092915050565b6000612d1782612e04565b9150612d2283612e04565b9250817fffffffffffffffffffffffffffffffffffffffffffffffffffffffffffffffff0483118215151615612d5b57612d5a612f2d565b5b828202905092915050565b6000612d7182612e04565b9150612d7c83612e04565b925082821015612d8f57612d8e612f2d565b5b828203905092915050565b6000612da582612de4565b9050919050565b60008115159050919050565b60007fffffffff0000000000000000000000000000000000000000000000000000000082169050919050565b600073ffffffffffffffffffffffffffffffffffffffff82169050919050565b6000819050919050565b82818337600083830152505050565b60005b83811015612e3b578082015181840152602081019050612e20565b83811115612e4a576000848401525b50505050565b60006002820490506001821680612e6857607f821691505b60208210811415612e7c57612e7b612f8b565b5b50919050565b612e8b82612fe9565b810181811067ffffffffffffffff82111715612eaa57612ea9612fba565b5b80604052505050565b6000612ebe82612e04565b91507fffffffffffffffffffffffffffffffffffffffffffffffffffffffffffffffff821415612ef157612ef0612f2d565b5b600182019050919050565b6000612f0782612e04565b9150612f1283612e04565b925082612f2257612f21612f5c565b5b828206905092915050565b7f4e487b7100000000000000000000000000000000000000000000000000000000600052601160045260246000fd5b7f4e487b7100000000000000000000000000000000000000000000000000000000600052601260045260246000fd5b7f4e487b7100000000000000000000000000000000000000000000000000000000600052602260045260246000fd5b7f4e487b7100000000000000000000000000000000000000000000000000000000600052604160045260246000fd5b6000601f19601f8301169050919050565b7f4552433732313a207472616e7366657220746f206e6f6e20455243373231526560008201527f63656976657220696d706c656d656e7465720000000000000000000000000000602082015250565b7f4552433732313a207472616e736665722066726f6d20696e636f72726563742060008201527f6f776e6572000000000000000000000000000000000000000000000000000000602082015250565b7f4552433732313a20746f6b656e20616c7265616479206d696e74656400000000600082015250565b7f4552433732313a207472616e7366657220746f20746865207a65726f2061646460008201527f7265737300000000000000000000000000000000000000000000000000000000602082015250565b7f4552433732313a20617070726f766520746f2063616c6c657200000000000000600082015250565b7f222c20226465736372697074696f6e223a20224120686967686c79206163636c60008201527f61696d656420636f6c6c656374696f6e206f6620737175617265732e222c202260208201527f696d616765223a2022646174613a696d6167652f7376672b786d6c3b6261736560408201527f36342c0000000000000000000000000000000000000000000000000000000000606082015250565b7f4552433732313a206f70657261746f7220717565727920666f72206e6f6e657860008201527f697374656e7420746f6b656e0000000000000000000000000000000000000000602082015250565b7f3c2f746578743e3c2f7376673e00000000000000000000000000000000000000600082015250565b7f4552433732313a20617070726f76652063616c6c6572206973206e6f74206f7760008201527f6e6572206e6f7220617070726f76656420666f7220616c6c0000000000000000602082015250565b7f4552433732313a2062616c616e636520717565727920666f7220746865207a6560008201527f726f206164647265737300000000000000000000000000000000000000000000602082015250565b7f4552433732313a206f776e657220717565727920666f72206e6f6e657869737460008201527f656e7420746f6b656e0000000000000000000000000000000000000000000000602082015250565b7f45524337323155524953746f726167653a2055524920736574206f66206e6f6e60008201527f6578697374656e7420746f6b656e000000000000000000000000000000000000602082015250565b7f206f662000000000000000000000000000000000000000000000000000000000600082015250565b7f227d000000000000000000000000000000000000000000000000000000000000600082015250565b7f4552433732313a206d696e7420746f20746865207a65726f2061646472657373600082015250565b7f45524337323155524953746f726167653a2055524920717565727920666f722060008201527f6e6f6e6578697374656e7420746f6b656e000000000000000000000000000000602082015250565b7f4552433732313a20617070726f76656420717565727920666f72206e6f6e657860008201527f697374656e7420746f6b656e0000000000000000000000000000000000000000602082015250565b7f4552433732314d657461646174613a2055524920717565727920666f72206e6f60008201527f6e6578697374656e7420746f6b656e0000000000000000000000000000000000602082015250565b7f6e6f206d6f7265207468616e204e66744d61784e756d00000000000000000000600082015250565b7f7b226e616d65223a202200000000000000000000000000000000000000000000600082015250565b7f4552433732313a20617070726f76616c20746f2063757272656e74206f776e6560008201527f7200000000000000000000000000000000000000000000000000000000000000602082015250565b7f646174613a6170706c69636174696f6e2f6a736f6e3b6261736536342c000000600082015250565b7f4552433732313a207472616e736665722063616c6c6572206973206e6f74206f60008201527f776e6572206e6f7220617070726f766564000000000000000000000000000000602082015250565b7f203a200000000000000000000000000000000000000000000000000000000000600082015250565b61363b81612d9a565b811461364657600080fd5b50565b61365281612dac565b811461365d57600080fd5b50565b61366981612db8565b811461367457600080fd5b50565b61368081612e04565b811461368b57600080fd5b5056fe416e204e465420772f20494420257320686173206265656e206d696e74656420746f2025734142434445464748494a4b4c4d4e4f505152535455565758595a6162636465666768696a6b6c6d6e6f707172737475767778797a303132333435363738392b2fa26469706673582212203d00b0fca552e63c6de146db1cfc37c082bd2b22cee0fbd35be729def9cbdbb264736f6c634300080100333c73766720786d6c6e733d27687474703a2f2f7777772e77332e6f72672f323030302f73766727207072657365727665417370656374526174696f3d27784d696e594d696e206d656574272076696577426f783d273020302033353020333530273e3c7374796c653e2e62617365207b2066696c6c3a2077686974653b20666f6e742d66616d696c793a2073657269663b20666f6e742d73697a653a20323470783b207d3c2f7374796c653e3c726563742077696474683d273130302527206865696768743d2731303025272066696c6c3d27626c61636b27202f3e3c7465787420783d273530252720793d273530252720636c6173733d27626173652720646f6d696e616e742d626173656c696e653d276d6964646c652720746578742d616e63686f723d276d6964646c65273e",
    "linkReferences": {},
    "deployedLinkReferences": {}
}